:040000000CEF3FF0D2
:107C1400C69A1200010E1200000E1200010E99EC19
:107C240043F01200000E99EC43F01200000E026EB5
:107C3400000E016E1200000E026E000E016E1200A4
:107C4400600ED36E040ED26E000E9B6E120030ECEA
:107C54003EF0EDEC3EF022EC3EF01200400EC76E1A
:107C6400000EC66E010EC86E9496C69A1200EB0EF4
:107C7400016EFF0E026E01C001F002C002F012009C
:107C8400F00E016EFF0E026E01C001F002C002F0A0
:107C94001200DF0E016EFF0E026E01C001F002C081
:107CA40002F0120048656C6C6F20576F726C64218F
:107CB400000000020000000000000101DA51D8A415
:107CC40066EF3EF069EF3EF0010E6AEF3EF0000E03
:107CD4001200016E01C0C9FF9EA673EF3EF075EF5E
:107CE4003EF06EEF3EF09E96C95012000CC001F0BB
:107CF4000DC002F0C10E036EFF0E046E11EC42F0D3
:107D0400C10E0C6EFF0E0D6E0CC00CF00DC00DF00C
:107D1400120001C0D9FF02C0DAFF03C0DFFF014A2D
:107D2400022A0450036E046A01C0D9FF02C0DAFFBC
:107D340003C0DFFF014A022A1200066EA5EF3EF0DF
:107D4400000EB7EF3EF00650046E056A0550000AB7
:107D5400D8B4AFEF3EF0B6EF3EF00450000AD8B40A
:107D6400A2EF3EF0B6EF3EF0040E120001C007F0A1
:107D740002C008F007C0D9FF08C0DAFF03C0DFFF64
:107D8400074A082A0506D8A0060605500610D8A4F6
:107D9400CEEF3EF0D0EF3EF0BCEF3EF0120020EE0E
:107DA40001F00150D9260250DA22DF50036E03504D
:107DB400066E076A01C0D9FF02C0DAFFDF50036E06
:107DC4000650046E0350066E04C007F006C001F0AE
:107DD40007C002F01200000E8D6E000E8C6E000EB5
:107DE400896E000E8A6E000E8B6E070E966E926878
:107DF4009368D30E946E95680F013B69C00E3A6F79
:107E04003F0E396F070E3C6F2F0E386F000E616EF8
:107E1400F18E1200A80EF66E7C0EF76E000EF86E50
:107E240001EECAF010EE16F00900F5CFEEFFE550B2
:107E3400E150FAE106EE8EF018EEAAF0EE6AE55093
:107E4400E150FCE1E250FAE101EE00F07F0EEE6A4F
:107E5400E806FDE10001EAEF42F01A0E0724016E84
:107E6400000E0820026E09C003F00AC004F08BEC77
:107E74003EF005C0D9FF06C0DAFF030EDE18D8A411
:107E840046EF3FF048EF3FF054EF3FF0140E072465
:107E9400016E000E0820026E0BC003F00CC004F04B
:107EA4008BEC3EF0120001C003F002C004F05DEF61
:107EB4003FF0014A022A01C0F6FF02C0F7FF000E9C
:107EC400F86E0F0EF76403D00800F55005D0F6CF16
:107ED400E9FFF7CFEAFFEF500009D8A474EF3FF0B1
:107EE40076EF3FF05BEF3FF00350015C016E04500E
:107EF4000258026E120003C009F004C00AF001C067
:107F040007F002C008F097EF3FF009C0D9FF0AC09C
:107F1400DAFFDF500B6E094A0A2A07C0D9FF08C0EE
:107F2400DAFF0BC0DFFF074A082A0506D8A00606B9
:107F3400052806E10628D8A4A2EF3FF0A4EF3FF0FD
:107F440087EF3FF0120001C005F002C006F0C1EF58
:107F54003FF005C0D9FF06C0DAFFDF50C96E9EA608
:107F6400B6EF3FF0B8EF3FF0B1EF3FF09E9605C09B
:107F7400D9FF06C0DAFFC9CFDFFF054A062A030688
:107F8400D8A00406032806E10428D8A4CCEF3FF0C7
:107F9400CEEF3FF0ABEF3FF01200576E010E586E7C
:107FA400E6EF3FF0E4EC6CF0E806D8A4DCEF3FF039
:107FB400DEEF3FF0E2EF3FF0000E586EF7EF3FF0D8
:107FC400010E586EF7EF3FF05750556E566A5650F3
:107FD400000AD8B4F0EF3FF0F7EF3FF05550000A35
:107FE400D8B4D4EF3FF0F7EF3FF05850120001C07F
:107FF40007F002C008F003C009F004C00AF00550FD
:108004000610D8B408EF40F00AEF40F024EF40F037
:1080140009C0D9FF0AC0DAFF07C0E1FF08C0E2FFC8
:10802400DFCFE7FF094A0A2A074A082A0506D8A02B
:10803400060605500610D8A422EF40F024EF40F0C5
:108044000AEF40F012007FC078F080C079F059EC5C
:108054004FF00001836F8351D8A433EF40F035EF24
:1080640040F051EF40F07FC005F080C006F0810E73
:10807400076E000E086EFAEC45F00001836F835121
:10808400D8A447EF40F049EF40F051EF40F07FC0F3
:10809400D9FF80C0DAFF000EDE6E000EDD6E120026
:1080A400066E0650320DF3CF04F0F4CF05F08B8446
:1080B40074EF40F05B0EF66EFF0EF76EF86A09007F
:1080C400F5CF02F00900F5CF03F002D874EF40F0C9
:1080D4000500FA6E0250FD6E0350FE6EFF6AFA5000
:1080E400FF0E12000406D8A00506042806E10528A0
:1080F400D8A47FEF40F081EF40F05CEF40F0120035
:1081040086EF40F0014A022A01C0F6FF02C0F7FFE1
:10811400F86A0800F5500009D8B493EF40F095EFE1
:1081240040F0AAEF40F001C0F6FF02C0F7FFF86A82
:108134000800F550056E066A0350051807E104505F
:108144000618D8A4A8EF40F0AAEF40F084EF40F05E
:1081540001C0F6FF02C0F7FFF86A0800F550016E8F
:10816400026A1200000E096E000E0A6E000E0B6EFB
:10817400000E0C6E01A0C1EF40F0C3EF40F0CBEF56
:1081840040F00550092606500A2207500B220850D9
:108194000C22D8900536063607360836D8900432B5
:1081A4000332023201320150021003100410D8A429
:1081B400DEEF40F0E0EF40F0BCEF40F009C001F02A
:1081C4000AC002F00BC003F00CC004F0120001C09E
:1081D400D9FF02C0DAFF03C0DFFF014A022A04C04C
:1081E40003F005C004F006C005F0066A01C0D9FF1B
:1081F40002C0DAFF03C0DFFF014A022A04C003F011
:1082040005C004F006C005F0066A01C0D9FF02C02B
:10821400DAFF03C0DFFF014A022A04C003F005C0ED
:1082240004F006C005F0066A01C0D9FF02C0DAFFF7
:1082340003C0DFFF014A022A1200546E040E556E79
:1082440046EF41F04CC02FF04DC030F04EC031F03D
:108254004FC032F04AC033F04BC034F050C035F058
:1082640051C036F08FEC47F0E806D8A43CEF41F05B
:108274003EEF41F042EF41F0000E556E57EF41F0F2
:10828400010E556E57EF41F05450526E536A5350DD
:10829400000AD8B450EF41F057EF41F05250000AB1
:1082A400D8B424EF41F057EF41F055501200576E07
:1082B400040E586E80EF41F04FC032F050C033F0DE
:1082C40051C034F052C035F04DC036F04EC037F0D6
:1082D40053C038F054C039F02AEC48F0E806D8A46A
:1082E40076EF41F078EF41F07CEF41F0000E586EEC
:1082F40091EF41F0010E586E91EF41F05750556ED9
:10830400566A5650000AD8B48AEF41F091EF41F012
:108314005550000AD8B45EEF41F091EF41F0585047
:108324001200036E010E046EBEEF41F00CEC3EF041
:108334000009D8A4A0EF41F0A2EF41F0A6EF41F06C
:10834400020E046EB1EF41F05FEC3EF0E806D8A4F3
:10835400AEEF41F0B0EF41F0B1EF41F004900EEC1C
:108364003EF0E806D8A4B9EF41F0BBEF41F0CFEFFF
:1083740041F00484CFEF41F00350016E026A0250D1
:10838400000AD8B4C8EF41F0CFEF41F00150000A21
:10839400D8B498EF41F0CFEF41F0045012001A0E18
:1083A4000A24016E000E0B20026ED1EC3EF001C0D7
:1083B40010F002C011F0126A136A08C0D9FF09C094
:1083C400DAFF030EDE18D8A4EAEF41F0ECEF41F037
:1083D40008EF42F0140E0A24016E000E0B20026E08
:1083E400D1EC3EF001500C6E02500D6E0E6A0F6A15
:1083F4000DC00FF00CC00EF00D6A0C6A0C50101278
:108404000D5011120E5012120F50131210C008F01A
:1084140011C009F012C00AF013C00BF01200000ED4
:108424000B6E000E0A6E0A500324056E0B500420D6
:10843400066E05C0F6FF06C0F7FFF86A0800F5CF20
:1084440007F00A500124086E0B500220096E08C080
:10845400F6FF09C0F7FF000EF86E0F0EF76404D0A4
:1084640007C0F5FF0C0006D0F6CFE9FFF7CFEAFF0F
:1084740007C0EFFF0A4A0B2A0A500324056E0B506B
:108484000420066E05C0F6FF06C0F7FFF86A080070
:10849400F5500009D8A451EF42F053EF42F015EF24
:1084A40042F0120001C009F002C00AF003C00BF050
:1084B40004C00CF009C0D9FF0AC0DAFFDF50076E10
:1084C4000BC0F6FF0CC0F7FF000EF86E0F0EF7643A
:1084D40003D00800F55005D0F6CFE9FFF7CFEAFF47
:1084E400EF50086E0850075C0D6E0E6AD8A00E0699
:1084F4000B4A0C2A094A0A2A0506D8A00606055082
:108504000610D8B488EF42F08AEF42F093EF42F0BD
:108514000D500E10D8B491EF42F093EF42F05CEF9F
:1085240042F00DC001F00EC002F01200000E096E00
:10853400000E0A6E000E0B6E000E0C6E0550061037
:1085440007100810D8B4A9EF42F0ABEF42F0E1EF06
:1085540042F0010E0D6EB5EF42F0D89005360636A6
:10856400073608360D2A08AEBAEF42F0BCEF42F0E7
:10857400AFEF42F0D89009360A360B360C36055068
:10858400015C065002580750035808500458D8A0FC
:10859400CEEF42F0D0EF42F0D9EF42F00550015E49
:1085A4000650025A0750035A0850045A0980D890BA
:1085B40008320732063205320D2EBCEF42F009C0F4
:1085C40001F00AC002F00BC003F00CC004F012006A
:1085D40029EC3EF0D60E0101C26FFF0EC36F9A0E56
:1085E400C46FFF0EC56FB40EC66FFF0EC76FA70E24
:1085F400C86FFF0EC96FC4C1F2F0C5C1F3F0570EC6
:10860400016E010E026E39EC3EF001C0F4F002C0BE
:10861400F5F002EC47F0C6C1F2F0C7C1F3F0430E27
:10862400016E010E026E42EC3EF001C0F4F002C095
:10863400F5F002EC47F0C8C1F2F0C9C1F3F02F0E17
:10864400016E010E026E4BEC3EF001C0F4F002C06C
:10865400F5F002EC47F0C2C1F2F0C3C1F3F06B0EC7
:108664000C6E010E0D6E78EC3EF00CC0F4F00DC0F3
:10867400F5F002EC47F03DEF43F000EF00F001C0ED
:10868400D9FF02C0DAFFDECF05F0DDCF06F001012D
:108694001B511C11D8A451EF43F053EF43F057EF93
:1086A40043F08E0E1B6F060E1C6F065007E1060E7C
:1086B400055CD8B060EF43F062EF43F066EF43F03F
:1086C400000E066E060E056E05501B5D076E065005
:1086D4001C59086EE00E036E010E046E0350075C15
:1086E40004500858D8A079EF43F07BEF43F086EFAD
:1086F40043F01B51075C1C510858D8A084EF43F089
:1087040086EF43F090EF43F0000E1E6F0C0E1D6FCA
:10871400000E016E000E026E98EF43F007C01BF1CD
:1087240008C01CF11BC101F01CC102F01200026E52
:10873400C6BA9FEF43F0A1EF43F0F3EF43F00250CA
:10874400040D010EF326000EF4227F0EF324F66EC0
:10875400FF0EF420F76EF86A000EF8220800F5CF39
:10876400C7FF0250040D7F0EF324F66EFF0EF420B3
:10877400F76EF86A000EF8220800F5CFC6FF000E67
:10878400C56E0250040D020EF326000EF4227F0E75
:10879400F324F66EFF0EF420F76EF86A000EF8224A
:1087A4000800F5CFC8FF0250040D030EF326000E97
:1087B400F4227F0EF324F66EFF0EF420F76EF86AAF
:1087C400000EF8220800F5CF01F0014601460146EB
:1087D40094500118F70B0118946EC68A010EF4EF39
:1087E40043F0000E120020EE03F00150D92602508F
:1087F400DA22DF50056E05500A6E0B6A0C6A0D6AA8
:1088040020EE02F00150D9260250DA22DF50056E24
:1088140005500AC007F00BC008F00CC009F0066A46
:1088240006100A6E07500B6E08500C6E09500D6E40
:1088340020EE01F00150D9260250DA22DF50056EF5
:1088440005500AC007F00BC008F00CC009F0066A16
:1088540006100A6E07500B6E08500C6E09500D6E10
:1088640001C0D9FF02C0DAFFDF50056E05500AC00F
:1088740007F00BC008F00CC009F0066A06100A6E77
:1088840007500B6E08500C6E09500D6E0AC001F0B3
:108894000BC002F00CC003F00DC004F01200000E77
:1088A4000001766F20EE2FF07051D9267151DA2233
:1088B4007251DE180FE17351DE180CE17451DE18A9
:1088C40009E17551DE18D8B46AEF44F06CEF44F056
:1088D400B5EF44F070C059F071C05AF08BEC4DF014
:1088E4000001766F7651D8A47AEF44F07CEF44F01F
:1088F400B5EF44F0330E70254A6E000E71214B6EB5
:1089040072C04CF073C04DF074C04EF075C04FF09F
:10891400000E516E010E506E20EE01F07051D926FA
:108924007151DA22DF501FEC41F00009D8B49DEFF9
:1089340044F09FEF44F0A6EF44F0000172697369BC
:1089440074697569010E766F000120EE2FF0705185
:10895400D9267151DA2272C0DEFF73C0DEFF74C003
:10896400DEFF75C0DEFF76511200020E0F5E000EB0
:10897400105A115A125A20EE17F00D50D9260E50E3
:10898400DA22FE0EDE24136EFF0EDE20146EFF0EBE
:10899400DE20156EFF0EDE20166E13500F5C145091
:1089A40010581550115816501258D8A0DCEF44F046
:1089B400DEEF44F0E8EF44F0000E0D6E000E0E6E94
:1089C400000E0F6E000E106E1CEF45F020EE2BF023
:1089D4000D50D9260E50DA22DECF13F0DECF14F07C
:1089E400DECF15F0DECF16F020EE09F00D50D926BB
:1089F4000E50DA22DECF17F0DDCF18F017C001F0E9
:108A040018C002F0036A046A0FC005F010C006F033
:108A140011C007F012C008F0B4EC40F01350012468
:108A24000D6E145002200E6E155003200F6E16505A
:108A34000420106E1200C7C0CBF0C8C0CCF0CB0E1F
:108A4400016E000E026E69EC49F001C0CFF002C065
:108A5400D0F00001D0BF33EF45F031EF45F036EFF1
:108A640045F00B0E88EF45F0D890CF35D96ED03550
:108A7400DA6E290ED926010EDA22DECFCDF0DDCF53
:108A8400CEF0CD51CE11D8B44AEF45F04CEF45F0BD
:108A940052EF45F0CDC0D9FFCEC0DAFF000EDF6E35
:108AA400C551C611D8B459EF45F05BEF45F061EFFD
:108AB40045F0C5C0D9FFC6C0DAFF000EDF6ED890FE
:108AC400CF35D96ED035DA6E290ED926010EDA22C9
:108AD400C5C0DEFFC6C0DDFFC951D8A474EF45F0A0
:108AE40076EF45F079EF45F0000E88EF45F0C70EBC
:108AF4007E6F000E7F6FC50E806F000E816F000EBB
:108B0400826F03EC79F00001CA6FCA511200DBC016
:108B1400D9FFDCC0DAFFDECFDDF0DDCFDEF0DBC075
:108B2400CFF0DCC0D0F0000E0001D26F010ED16F87
:108B34000FEC4AF00001DF6FDF51D8A4A4EF45F039
:108B4400A6EF45F0F8EF45F0DDC070F0DEC071F03F
:108B540020EE16F0DB51D926DC51DA22DECF72F09A
:108B6400DECF73F0DECF74F0DECF75F051EC44F05D
:108B74000001DF6FDF51D8A4C2EF45F0C4EF45F028
:108B8400F8EF45F020EE1AF0DB51D926DC51DA2259
:108B9400DECF01F0DDCF02F0000E046E000E036E96
:108BA400000E066E200E056EB8EC3EF0000120EEBD
:108BB4001AF0DB51D926DC51DA22DECF01F0DDCF09
:108BC40002F01C0EDB25036E000EDC21046E000E89
:108BD400066E0B0E056EF9EC3FF0000120EE03F07B
:108BE400DD51D926DE51DA22010EDF6EDF5112008B
:108BF400090E0F6E05500610D8B403EF46F005EFCA
:108C040046F059EF46F005C0D9FF06C0DAFFDE5042
:108C1400DE10D8B410EF46F012EF46F059EF46F0EC
:108C240005C0D9FF06C0DAFFDECF09F0DDCF0AF0B8
:108C340009C0D9FF0AC0DAFFDF50D8B424EF46F0E8
:108C440026EF46F059EF46F005C0D9FF06C0DAFF1B
:108C540010EE05F0DE50E126DD50E22220EE02F0B7
:108C64000550D9260650DA22E650DE1807E1E65010
:108C7400DE18D8A440EF46F042EF46F059EF46F034
:108C840005C0D9FF06C0DAFF10EE01F0DE50E12680
:108C9400DD50E222E75093EC41F0096E09B055EF44
:108CA40046F057EF46F059EF46F0000E0F6E0F50A6
:108CB400D8B45FEF46F061EF46F067EF46F0000E80
:108CC4000D6E000E0E6E6FEF46F005C0D9FF06C0A4
:108CD400DAFFDECF0DF0DDCF0EF007C0D9FF08C0FC
:108CE400DAFF0DC0DEFF0EC0DDFF0F50120007C01B
:108CF40001F008C002F055EC3FF001C011F002C0D1
:108D040012F009C001F00AC002F055EC3FF001C0B6
:108D14000FF002C010F0000E146E000E136EB3EFCD
:108D240046F0135007240B6E145008200C6E0BC031
:108D3400F6FF0CC0F7FF000EF86E13500524D96E31
:108D440014500620DA6E0F0EF76403D00800F550B5
:108D540005D0F6CFE9FFF7CFEAFFEF50DF6E134AF5
:108D6400142A1150135C1450800A0B6E1250800A9E
:108D74000B58D8A0C0EF46F0C2EF46F093EF46F090
:108D8400000E146E000E136EE4EF46F01350092427
:108D94000B6E14500A200C6E0BC0F6FF0CC0F7FFCC
:108DA400F86A135005240D6E145006200E6E1150EF
:108DB4000D24D96E12500E20DA6E0800F5CFDFFFB5
:108DC400134A142A0F50135C1450800A0B6E10506F
:108DD400800A0B58D8A0F1EF46F0F3EF46F0C8EF45
:108DE40046F0115005240B6E125006200C6E0F50E5
:108DF4000B24D96E10500C20DA6E000EDF6E1200B8
:108E0400F4C001F0F5C002F055EC3FF0010E01246E
:108E1400156E000E0220166EC5EC48F015C0FEF06B
:108E240016C0FFF0FEC005F0FFC006F0F4C007F066
:108E3400F5C008F0F80E096EFF0E0A6E79EC46F0E4
:108E4400FEC001F0FFC002F055EC3FF001C0FAF0A3
:108E540002C0FBF08E0E0001C56F060EC66FFA0E3F
:108E6400C76FFF0EC86F010EC96F1DEC45F00009F6
:108E7400D8A43FEF47F041EF47F08EEF47F0F40EF0
:108E84000001E56F0A0EE66FF2C0E7F0F3C0E8F008
:108E9400130EE96F08EC69F00009D8A454EF47F009
:108EA40056EF47F08EEF47F02AEEFEF0DE50DE106C
:108EB400DE10DE10D8B461EF47F063EF47F072EFD5
:108EC40047F0F40E0001B56F0A0EB66FFECAB7F094
:108ED400FFCAB8F000CBB9F001CBBAF0CBEC70F01C
:108EE400F40E0001B56F0A0EB66FFEC0B7F0FFC0F6
:108EF400B8F0FF0EFA25B96FFF0EFB21BA6FFC0E16
:108F0400BB6F000EBC6FC6EC74F0F40E00017F6FF3
:108F14000A0E806F25EC40F01200000E396E000E30
:108F24003C6E000E3B6E1DEF48F0020E3E6E000ECE
:108F34003D6E000E3F6E020E406E000E416E000E3E
:108F4400426E3BC037F03CC038F0090ED89037363B
:108F54003836E82EA8EF47F037503324436E3850A4
:108F64003420446E3B502F24456E3C503020466ED6
:108F7400000E3120476E000E3220486E010E496EFD
:108F8400590EF66EFF0EF76EF86A0900F5CF37F04A
:108F94000900F5CF38F002D8D9EF47F00500FA6E92
:108FA4003750FD6E3850FE6EFF6AFA501200000909
:108FB400D8A4DFEF47F0E1EF47F0E4EF47F0000E0D
:108FC40029EF48F08B943D0E236E000E246EBAEC0C
:108FD40059F03A6E3A50D8A4F2EF47F0F4EF47F064
:108FE400F8EF47F0010E396E02EF48F03A28D8A4A2
:108FF400FEEF47F000EF48F0E5EF47F0000E396E62
:109004008B84570EF66EFF0EF76E000EF86E090095
:10901400F5CF37F00900F5CF38F002D81BEF48F050
:109024000500FA6E3750FD6E3850FE6EFF6AFA5036
:1090340012003B4A3C2A35503B5C36503C58D8A081
:1090440026EF48F028EF48F097EF47F03950120028
:10905400000E3C6E000E3F6E000E3E6EB8EF48F000
:10906400020E416E000E406E000E426E020E436E02
:10907400000E446E000E456E3EC03AF03FC03BF019
:10908400090ED8903A363B36E82E43EF48F03A5072
:109094003624466E3B503720476E3E503224486E8D
:1090A4003F503320496E000E34204A6E000E3520A6
:1090B4004B6E010E4C6E590EF66EFF0EF76EF86A8B
:1090C4000900F5CF3AF00900F5CF3BF002D874EF70
:1090D40048F00500FA6E3A50FD6E3B50FE6EFF6A92
:1090E400FA5012000009D8A47AEF48F07CEF48F057
:1090F4007FEF48F0000EC4EF48F08B94400E236ECF
:10910400000E246EB6EC65F03D6E3D50D8A48DEF94
:1091140048F08FEF48F093EF48F0010E3C6E9DEF5E
:1091240048F03D28D8A499EF48F09BEF48F080EF31
:1091340048F0000E3C6E8B84570EF66EFF0EF76EF1
:10914400000EF86E0900F5CF3AF00900F5CF3BF0B8
:1091540002D8B6EF48F00500FA6E3A50FD6E3B5067
:10916400FE6EFF6AFA5012003E4A3F2A38503E5CB7
:1091740039503F58D8A0C1EF48F0C3EF48F032EF60
:1091840048F03C50120015501610D8A4CCEF48F00B
:10919400CEEF48F0D0EF48F0154A162A21C121F14C
:1091A40022C122F1165007E1040E155CD8B0DDEFA0
:1091B40048F0DFEF48F0E3EF48F0000E166E040EBF
:1091C400156E15C001F016C002F0ADEC52F001C0EE
:1091D4001DF002C01EF01D501E10D8A4F4EF48F07C
:1091E400F6EF48F064EF49F0010121511F5D176E5D
:1091F40022512059186E1550175C16501858D8B0C3
:1092040006EF49F008EF49F042EF49F0020E152449
:10921400196E000E16201A6E190E016E000E026EE3
:1092240041EC43F001C01FF002C020F01F50201099
:10923400D8A41FEF49F021EF49F027EF49F0000EC1
:10924400156E000E166E68EF49F01FC01FF020C0A7
:1092540020F001011F511F1809E120512018D8B432
:1092640036EF49F038EF49F03CEF49F01FC021F1E7
:1092740020C022F119501F241F6F1A502020206F84
:1092840021C11DF022C11EF01DC01BF01EC01CF028
:109294001BC0D9FF1CC0DAFF15C0DEFF16C0DDFFFE
:1092A400020E1B26000E1C221BC01DF01CC01EF04B
:1092B400020E1524176E000E1620186E1750212763
:1092C400185022231DC015F01EC016F012000A68A3
:1092D4000B6801C0D9FF02C0DAFFDECF0CF0DDCF8E
:1092E4000DF00CC007F00DC008F00C500D10D8A400
:1092F4007EEF49F080EF49F084EF49F0016802689D
:109304000EEF4AF007C0F6FF08C0F7FFF86A08003E
:10931400F5CF09F0074A082A200E096494EF49F0B2
:1093240096EF49F09FEF49F03A0E0918D8A49DEF43
:1093340049F09FEF49F084EF49F03A0E0918D8A498
:10934400A6EF49F0A8EF49F007EF4AF0000E066EC9
:10935400010E056E0CC0F6FF0DC0F7FFF86A2F0E64
:109364000800F564B8EF49F0BAEF49F0E8EF49F0C6
:109374000CC0F6FF0DC0F7FFF86A3A0E0800F5605E
:10938400C6EF49F0C8EF49F0E8EF49F0020E0C24AB
:10939400036E000E0D20046E0750031807E10850F9
:1093A4000418D8A4D8EF49F0DAEF49F0E8EF49F00F
:1093B4000CC0F6FF0DC0F7FFF86A0800F5CF03F004
:1093C400D00E0324056E066AFF0E062206BEF5EFD4
:1093D40049F0065006E10504D8B0F3EF49F0F5EF83
:1093E40049F001EF4AF005C00AF006C00BF001C0D5
:1093F400D9FF02C0DAFF07C0DEFF08C0DDFF0AC0E4
:1094040001F00BC002F00EEF4AF02EC10AF00B6A15
:109414000AC001F00BC002F01200CFC0D9FFD0C0C7
:10942400DAFFDECFD6F0DDCFD7F0CFC091F0D0C0D9
:1094340092F0000E0001936F000E946F000E956F72
:10944400000E966FEAEC53F00001DA6FDA51D8A4FB
:109454002EEF4AF030EF4AF0A9EF4AF0000ED96F30
:10946400000ED86FD6C070F0D7C071F020EE16F0A1
:10947400CF51D926D051DA22DECF72F0DECF73F08D
:10948400DECF74F0DECF75F051EC44F00001DA6FFA
:10949400DA51D8B450EF4AF052EF4AF054EF4AF0A0
:1094A400A9EF4AF020EE1AF0CF51D926D051DA2292
:1094B400DECFD3F0DDCFD4F0D3C0D9FFD4C0DAFFF0
:1094C400E50EDE18D8B469EF4AF06BEF4AF081EF8D
:1094D4004AF020EE1AF0CF51D926D051DA22DECF4D
:1094E400D3F0DDCFD4F0D3C0D9FFD4C0DAFFDF503E
:1094F400D8A47FEF4AF081EF4AF091EF4AF0D84BBD
:10950400D92BD151D81907E1D251D919D8A48DEF4B
:109514004AF08FEF4AF095EF4AF0A9EF4AF0000EB7
:10952400D96F000ED86FCFC0B5F0D0C0B6F0000E22
:10953400B86F010EB76FAFEC57F00001DA6FDA5174
:10954400D8B4A7EF4AF0A9EF4AF034EF4AF0040E7A
:10955400DA19D8A4B0EF4AF0B2EF4AF0B4EF4AF007
:10956400070EDA6FDA51120070C059F071C05AF068
:109574008BEC4DF00009D8B4C2EF4AF0C4EF4AF0C6
:10958400C7EF4AF0010E5DEF4BF070C00DF071C0F3
:109594000EF072C00FF073C010F074C011F075C0FB
:1095A40012F0B7EC44F00DC078F00EC079F00FC0A3
:1095B4007AF010C07BF0000120EE2FF07051D92614
:1095C4007151DA2278C0DEFF79C0DEFF7AC0DEFF97
:1095D4007BC0DEFF330E7025016E000E7121026E1A
:1095E400000E046E000E036E020E066E000E056E73
:1095F400B8EC3EF0330E00017025766F000E712139
:10960400776F000E7D6F010E7C6F000E7F6F000E72
:109614007E6F12EF4BF000017C517E277D517F233A
:1096240020EE09F07051D9267151DA22DE507E5DA8
:10963400DE507F59D8B021EF4BF023EF4BF048EFC9
:109644004BF076C04DF077C04EF07E5178254F6ECA
:109654007F517921506E000E7A21516E000E7B21CC
:10966400526E7CC053F07DC054F020EE01F0705176
:10967400D9267151DA22DF5059EC41F00009D8B4EF
:1096840046EF4BF048EF4BF00DEF4BF0000120EEAE
:1096940009F07051D9267151DA227E51DE1807E1A2
:1096A4007F51DE18D8A459EF4BF05CEF4BF0010E5C
:1096B4005DEF4BF0000E1200000120EE03F0775135
:1096C400D9267851DA22000EDF6E20EE2FF0775182
:1096D400D9267851DA22FF0EDE6EFF0EDE6EFF0E03
:1096E400DE6EFF0EDD6E77C070F078C071F079C069
:1096F40072F07AC073F07BC074F07CC075F051ECEA
:1097040044F00009D8B489EF4BF08BEF4BF08EEFA7
:109714004BF0040E0DEF4CF0310E00017725016E75
:10972400020E7821026ED1EC3EF0550E011809E1CB
:10973400AA0E0218D8B4A1EF4BF0A3EF4BF0A6EF9A
:109744004BF0030E0DEF4CF0000120EE33F0775197
:10975400D9267851DA22E90EDE18D8B4B4EF4BF0EA
:10976400B6EF4BF0D4EF4BF020EE33F07751D9261F
:109774007851DA22EB0EDE18D8B4C3EF4BF0C5EF04
:109784004BF0D4EF4BF020EE33F07751D9267851DB
:10979400DA22E80EDE18D8A4D2EF4BF0D4EF4BF067
:1097A4000CEF4CF0690E7725016E000E7821026EE5
:1097B400F40E036EFF0E046E000E066E030E056EAD
:1097C40054EC42F001500210D8A4EBEF4BF0EDEF53
:1097D4004BF0F0EF4BF0000E0DEF4CF0850E000156
:1097E4007725016E000E7821026EE50E036EFF0EE2
:1097F400046E000E066E050E056E54EC42F0015028
:109804000210D8A408EF4CF00AEF4CF00CEF4CF027
:10981400EDEF4BF0020E120001C00BF002C00CF091
:1098240005500610D8A419EF4CF01BEF4CF01DEFB7
:109834004CF0C8EF4CF00BC0D9FF0CC0DAFF03C0EA
:10984400DFFF05500B24076E06500C20086EFF0E38
:109854000724D96EFF0E0820DA6E03C0DFFF06501E
:1098640007E1030E055CD8B03AEF4CF03CEF4CF046
:109874003EEF4CF0C8EF4CF020EE01F00B50D9262F
:109884000C50DA2203C0DFFF20EE02F00B50D92681
:109894000C50DA2203C0DFFF05500B24076E06507C
:1098A4000C20086EFE0E0724D96EFF0E0820DA6E17
:1098B40003C0DFFF05500B24076E06500C20086E12
:1098C400FD0E0724D96EFF0E0820DA6E03C0DFFFF9
:1098D400065007E1070E055CD8B073EF4CF075EF46
:1098E4004CF077EF4CF0C8EF4CF020EE03F00B5047
:1098F400D9260C50DA2203C0DFFF05500B24076E73
:1099040006500C20086EFC0E0724D96EFF0E0820AA
:10991400DA6E03C0DFFF065007E1090E055CD8B01C
:1099240096EF4CF098EF4CF09AEF4CF0C8EF4CF0F7
:109934000BC007F00CC008F0071E081E074A082ACF
:10994400030E0714096E0A6A09500B260A500C22EA
:109954000950055E0A50065AFC0E0516FF0E06163F
:10996400BFEF4CF00BC0D9FF0CC0DAFF03C0DFFF20
:109974000506D8A006060B4A0C2A05500610D8A4E2
:10998400C6EF4CF0C8EF4CF0B4EF4CF01200CFC06F
:10999400D9FFD0C0DAFFDECFD3F0DDCFD4F0CFC013
:1099A40091F0D0C092F0000E0001936F000E946FFE
:1099B400000E956F000E966FEAEC53F00001D66F1F
:1099C400D651D8B4E8EF4CF0EAEF4CF0EEEF4CF09F
:1099D4000001D6518AEF4DF0D3C070F0D4C071F0BD
:1099E40020EE16F0CF51D926D051DA22DECF72F014
:1099F400DECF73F0DECF74F0DECF75F051EC44F0BF
:109A04000001D66FD651D8B40AEF4DF00CEF4DF0EB
:109A14000EEF4DF0EAEF4CF020EE1AF0CF51D926BC
:109A2400D051DA22DECFD1F0DDCFD2F0D1C0D9FFD0
:109A3400D2C0DAFFDF50D56FD551D8A424EF4DF052
:109A440026EF4DF02AEF4DF0040ED66FEAEF4CF0FE
:109A540020EE04F0CF51D926D051DA2210EE1AF0BC
:109A6400CF51E126D051E22200EE0BF0E650E92678
:109A7400E550EA22EF503F0BDF6E20EE1AF0CF5193
:109A8400D926D051DA2210EE0BF0DE50E126DD505B
:109A9400E222E7B650EF4DF052EF4DF073EF4DF088
:109AA40020EE1AF0CF51D926D051DA22DECF01F0C0
:109AB400DDCF02F01C0ECF25036E000ED021046E04
:109AC400000E066E0B0E056E54EC42F001500210AF
:109AD400D8A46FEF4DF071EF4DF073EF4DF0EAEF56
:109AE4004CF0CFC0B5F0D0C0B6F0000E0001B86F96
:109AF400000EB76FAFEC57F00001D66FD651D8B453
:109B040086EF4DF088EF4DF0EEEF4CF0EAEF4CF0BD
:109B14001200000E5B6E20EE03F05950D9265A5005
:109B2400DA22DF50D8B499EF4DF09BEF4DF058EFA7
:109B34004EF0330E59244D6E000E5A204E6E20EE18
:109B44002FF05950D9265A50DA22DECF4FF0DECF0B
:109B540050F0DECF51F0DECF52F0000E546E010E05
:109B6400536E20EE01F05950D9265A50DA22DF50B4
:109B740059EC41F00009D8A4C2EF4DF0C4EF4DF008
:109B840056EF4EF020EE03F05950D9265A50DA22FF
:109B9400000EDF6E20EE1BF05950D9265A50DA22FF
:109BA40010EE23F05950E1265A50E222E6CF64F039
:109BB400E6CF65F0E6CF66F0E6CF67F010EE2FF063
:109BC4005950E1265A50E222E6CF68F0E6CF69F018
:109BD400E6CF6AF0E6CF6BF000016451685D6C6F0C
:109BE400655169596D6F66516A596E6F67516B594A
:109BF4006F6FDE506C5DDE506D59DE506E59DE5075
:109C04006F59D8B008EF4EF00AEF4EF058EF4EF00F
:109C140020EE02F05950D9265A50DA22020EDE18EC
:109C2400D8A417EF4EF019EF4EF058EF4EF0330E64
:109C340059244D6E000E5A204E6E20EE1BF05950E2
:109C4400D9265A50DA22DECF60F0DECF61F0DECFC3
:109C540062F0DECF63F020EE2FF05950D9265A502F
:109C6400DA22DECF64F0DECF65F0DECF66F0DECF41
:109C740067F0605164254F6E61516521506E6251E9
:109C84006621516E63516721526E000E546E010EAF
:109C9400536E20EE01F05950D9265A50DA22DF5083
:109CA40059EC41F058EF4EF0010E5B6E5B50120020
:109CB4005CC059F05DC05AF08BEC4DF05E6E5E50A6
:109CC400D8A467EF4EF069EF4EF057EF4FF05CC049
:109CD400D9FF5DC0DAFF030EDE18D8A474EF4EF08E
:109CE40076EF4EF03EEF4FF020EE04F05C50D926B4
:109CF4005D50DA22DE04D8A482EF4EF084EF4EF0F9
:109D04003EEF4FF0330E5C24016E000E5D20026EB8
:109D1400000E046E000E036E020E066E000E056E3B
:109D2400B8EC3EF0310E5C24016E020E5D20026E32
:109D3400AA0E046E550E036E8BEC3EF0330E5C24BB
:109D4400016E000E5D20026E520E036E520E046E02
:109D5400610E056E410E066EE9EC40F0170E5C24B0
:109D6400016E020E5D20026E720E036E720E046EA0
:109D7400410E056E610E066EE9EC40F01B0E5C248C
:109D8400016E020E5D20026E20EE0FF05C50D926AB
:109D94005D50DA22DECF03F0DECF04F0DECF05F033
:109DA400DECF06F0E9EC40F01F0E5C24016E020EDB
:109DB4005D20026E20EE0BF05C50D9265D50DA2255
:109DC400DECF03F0DECF04F0DECF05F0DECF06F009
:109DD400E9EC40F020EE1FF05C50D9265D50DA2209
:109DE400DECF70F0DECF71F0DECF72F0DECF73F035
:109DF400010E00017025746F000E7121756F000E45
:109E04007221766F000E7321776F20EE2FF05C5075
:109E1400D9265D50DA2274C0DEFF75C0DEFF76C03D
:109E2400DEFF77C0DEFF330E5C244D6E000E5D2036
:109E34004E6E20EE2FF05C50D9265D50DA22DECF34
:109E44004FF0DECF50F0DECF51F0DECF52F0000EF7
:109E5400546E010E536E20EE01F05C50D9265D5015
:109E6400DA22DF5059EC41F020EE04F05C50D926A0
:109E74005D50DA22000EDF6E000E016E000E026EDF
:109E8400000E036E20EE01F05C50D9265D50DA22FC
:109E9400DF509FEC3EF00009D8B453EF4FF055EF7C
:109EA4004FF057EF4FF0010E5E6E5E50120078C017
:109EB40005F079C006F07D0E076E000E086EFAEC10
:109EC40045F000017A6F7A51D8A46BEF4FF06DEF33
:109ED4004FF056EF50F020EE0EF07851D92679511C
:109EE400DA22DFAC78EF4FF07AEF4FF056EF50F014
:109EF40020EE0EF07851D9267951DA22DFAE85EFC3
:109F04004FF087EF4FF0BCEF4FF0220E78254D6EE7
:109F1400000E79214E6E20EE18F07851D926795131
:109F2400DA22DECF4FF0DECF50F0DECF51F0DECFBD
:109F340052F0000E546E010E536E20EE01F07D516E
:109F4400D9267E51DA22DF5059EC41F00009D8B409
:109F5400AEEF4FF0B0EF4FF0B3EF4FF0010E57EF0D
:109F640050F0000120EE0EF07851D9267951DA2212
:109F74007F0EDF167DC070F07EC071F020EE1CF005
:109F84007851D9267951DA22DECF72F0DECF73F020
:109F9400DECF74F0DECF75F051EC44F000017A6F3F
:109FA4007A51D8A4D8EF4FF0DAEF4FF056EF50F0D3
:109FB40020EE20F07851D9267951DA22DECF7BF0D9
:109FC400DDCF7CF020EE0BF07B51D9267C51DA22D8
:109FD400000EDB8A78C0D9FF79C0DAFFDECF05F046
:109FE400DDCF06F07BC007F07CC008F020EE06F061
:109FF4007851D9267951DA22DECF09F0DECF0AF082
:10A00400DECF0BF0DECF0CF02FEC3FF01C0E000186
:10A014007B25016E000E7C21026E20EE0AF0785141
:10A02400D9267951DA22DECF03F0DECF04F0DECF79
:10A0340005F0DECF06F0E9EC40F0160E00017B25BA
:10A04400016E000E7C21026E000E036E000E046E83
:10A05400460E056E560E066EE9EC40F0120E000137
:10A064007B25016E000E7C21026E000E046E000E34
:10A07400036E8BEC3EF0000120EE03F07D51D926F7
:10A084007E51DA22010EDF6E7DC05CF07EC05DF091
:10A094005AEC4EF000017A6F20EE0EF07851D9267A
:10A0A4007951DA22BF0EDF167A51120098C0D9FF17
:10A0B40099C0DAFFDECFAFF0DDCFB0F000019D51E3
:10A0C4009C119B1109E1020E9A5DD8A06CEF50F02F
:10A0D4006EEF50F083EF50F020EE17F0AF51D92619
:10A0E400B051DA22DE509A5DDE509B59DE509C5905
:10A0F400DE509D59D8A081EF50F083EF50F086EFE9
:10A1040050F0020E70EF51F09E519F11A011A11159
:10A11400D8B48FEF50F091EF50F0B4EF50F0AFC0DF
:10A1240077F0B0C078F09EC079F09FC07AF0A0C0FC
:10A134007BF0A1C07CF0FF0E7D6FFF0E7E6FFF0EE3
:10A144007F6FFF0E806F5EEC60F00001AE6FAE516A
:10A15400D8B4AFEF50F0B1EF50F0B4EF50F0AE51CF
:10A1640070EF51F098C077F099C078F09AC079F008
:10A174009BC07AF09CC07BF09DC07CF0AFEC55F0A6
:10A1840077C0AAF078C0ABF079C0ACF07AC0ADF07B
:10A194000001AA51AB11AC11AD11D8A4D4EF50F009
:10A1A400D6EF50F0D8EF50F06FEF51F0AA05AB1195
:10A1B400AC11AD11D8A4E1EF50F0E3EF50F0E5EFAE
:10A1C40050F083EF50F0AA290AE1AB2908E1AC2949
:10A1D40006E1AD29D8A4F1EF50F0F3EF50F0F6EF1B
:10A1E40050F0010E70EF51F0AFC077F0B0C078F0CE
:10A1F4009AC079F09BC07AF09CC07BF09DC07CF043
:10A20400000E7D6F000E7E6F000E7F6F000E806F5C
:10A214005EEC60F00001AE6FAE51D8B414EF51F0B3
:10A2240016EF51F018EF51F0B1EF50F020EE17F0A7
:10A23400AF51D926B051DA22FE0EDE24A26FFF0EF2
:10A24400DE20A36FFF0EDE20A46FFF0EDE20A56FBD
:10A2540020EE0FF0AF51D926B051DA22A251DE5CC4
:10A26400A351DE58A451DE58A551DE58D8B03DEFB5
:10A2740051F03FEF51F052EF51F020EE0FF0AF519B
:10A28400D926B051DA22DE2A000EDE22DE22DE22B8
:10A2940020EE04F0AF51D926B051DA22000EDB8053
:10A2A400AAC09AF0ABC09BF0ACC09CF0ADC09DF0CE
:10A2B40020EE17F0AF51D926B051DA22DE509A5D64
:10A2C400DE509B59DE509C59DE509D59D8A06DEF4D
:10A2D40051F06FEF51F0B4EF50F0000E1200D7C000
:10A2E400D9FFD8C0DAFFDECFE1F0DDCFE2F0D9C08C
:10A2F400F6FFDAC0F7FFF86A0800F5502F0AD8B461
:10A3040086EF51F088EF51F0B1EF51F0D9C0F6FF6C
:10A31400DAC0F7FFF86A0800F5505C0AD8B495EF84
:10A3240051F097EF51F0B1EF51F0000120EE13F02E
:10A33400E151D926E251DA2210EE06F0D751E12696
:10A34400D851E222DECFE6FFDECFE6FFDECFE6FF26
:10A35400DECFE6FFDAEF51F00001D94BDA2BD9C09A
:10A36400F6FFDAC0F7FFF86A0800F5502F0AD8B4F0
:10A37400BEEF51F0C0EF51F0AEEF51F0D9C0F6FF8F
:10A38400DAC0F7FFF86A0800F5505C0AD8B4CDEFDC
:10A3940051F0CFEF51F0AEEF51F0000120EE06F096
:10A3A400D751D926D851DA22DE6ADE6ADE6ADD6A3E
:10A3B400D9C0F6FFDAC0F7FFF86A200E0800F5608E
:10A3C400E6EF51F0E8EF51F002EF52F020EE27F003
:10A3D400D751D926D851DA22800EDF6ED7C091F03A
:10A3E400D8C092F0000E936F000E946F000E956F1C
:10A3F400000E966FEAEC53F00001E46FABEF52F0FD
:10A40400D7C009F0D8C00AF0D90E0B6E000E0C6E3E
:10A41400E0EC5BF00001E46FE451D8B414EF52F0C7
:10A4240016EF52F018EF52F0ABEF52F0D7C0CFF066
:10A43400D8C0D0F0C9EC4CF00001E46F20EE27F056
:10A44400D751D926D851DA22DF50E36FE451D8B47A
:10A454002EEF52F030EF52F060EF52F0040EE41998
:10A46400D8A437EF52F039EF52F0ABEF52F0E3AB30
:10A474003EEF52F040EF52F055EF52F0E3B545EFA6
:10A4840052F047EF52F049EF52F002EF52F020EE53
:10A4940027F0D751D926D851DA22800EDF6E000E6C
:10A4A400E46FABEF52F0E3B55AEF52F05CEF52F0C9
:10A4B400ABEF52F0050EE46FABEF52F0E3A565EF9E
:10A4C40052F067EF52F069EF52F0ABEF52F020EE2A
:10A4D40004F0D751D926D851DA22DFB874EF52F0FC
:10A4E40076EF52F078EF52F05CEF52F0E1C008F0F2
:10A4F400E2C009F020EE0EF0D751D926D851DA2265
:10A50400DECFDBF0DDCFDCF0FF0EDB15DD6F010EFF
:10A51400DC15DE6FDD51E125DF6FDE51E221E06FF6
:10A52400330EDF250A6E000EE0210B6ED1EC41F0F4
:10A53400000120EE06F0D751D926D851DA2208C0FE
:10A54400DEFF09C0DEFF0AC0DEFF0BC0DEFF02EF44
:10A5540052F0E4511200000E136E000E146E000E41
:10A56400096E000E0A6E000E0D6E000E0E6E0101D5
:10A5740019511A11D8A4C1EF52F0C3EF52F0C9EF28
:10A5840052F0000E016E000E026EE9EF53F019C195
:10A5940011F01AC112F04FEF53F011C0D9FF12C0DD
:10A5A400DAFF0150DE1807E10250DE18D8A4DDEF0F
:10A5B40052F0DFEF52F00CEF53F00D500E10D8B400
:10A5C400E6EF52F0E8EF52F0FAEF52F020EE02F02C
:10A5D4001150D9261250DA2210EE02F00D50E12665
:10A5E4000E50E222DECFE6FFDDCFE5FF04EF53F0AD
:10A5F40020EE02F01150D9261250DA22DECF19F1E2
:10A60400DDCF1AF1020E1124016E000E1220026E2B
:10A61400E9EF53F011C0D9FF12C0DAFFDE50015C3C
:10A62400DE500258D8B019EF53F01BEF53F041EF4E
:10A6340053F013501410D8B422EF53F024EF53F016
:10A6440039EF53F013C0D9FF14C0DAFF11C0E1FF92
:10A6540012C0E2FFDE50E65CDE50E658D8A035EFCB
:10A6640053F037EF53F039EF53F041EF53F011C08B
:10A6740013F012C014F00DC009F00EC00AF011C09E
:10A684000DF012C00EF020EE02F01150D926125037
:10A69400DA22DECF11F0DDCF12F011501210D8A45F
:10A6A40056EF53F058EF53F0CFEF52F0135014100D
:10A6B400D8B45FEF53F061EF53F0C3EF52F020EEE4
:10A6C40002F01350D9261450DA22DECF0FF0DDCF7A
:10A6D40010F013C0D9FF14C0DAFFDECF03F0DDCFD2
:10A6E40004F00150035E0250045A045009E1050EBF
:10A6F400035CD8A080EF53F082EF53F0C6EF53F021
:10A7040013C0D9FF14C0DAFFDECF03F0DDCF04F0AD
:10A714000150035E0250045AFE0E0324076EFF0E1E
:10A724000420086E13C0D9FF14C0DAFF01C0DEFF95
:10A7340002C0DDFF13C0D9FF14C0DAFFDECF03F07F
:10A74400DDCF04F003501324056E04501420066E6C
:10A75400020E05240B6E000E06200C6E0BC0D9FFF2
:10A764000CC0DAFF07C0DEFF08C0DDFF20EE02F0F8
:10A774000B50D9260C50DA220FC0DEFF10C0DDFFCB
:10A784000BC00FF00CC010F013500101191907E1B0
:10A7940014501A19D8A4D1EF53F0D3EF53F0D9EFD2
:10A7A40053F00FC019F110C01AF1E3EF53F020EE8B
:10A7B40002F00950D9260A50DA220FC0DEFF10C079
:10A7C400DDFF020E1324016E000E1420026E12002F
:10A7D40091C0D9FF92C0DAFFDECFA9F0DDCFAAF095
:10A7E4000001965107E1200E955DD8B0FCEF53F0BF
:10A7F400FEEF53F015EF54F01F0E9315976F000EF4
:10A804009415986F000E9515996F000E96159A6F12
:10A814009751981199119A11D8B413EF54F015EF78
:10A8240054F018EF54F0020EAEEF55F020EE0EF097
:10A834009151D9269251DA2293C0DEFF94C0DEFFF3
:10A8440095C0DEFF96C0DEFF20EE06F09151D926BA
:10A854009251DA22DECFA5F0DECFA6F0DECFA7F04C
:10A86400DECFA8F0A551A611A711A811D8A43DEFD9
:10A8740054F03FEF54F059EF54F0A9C0D9FFAAC0E7
:10A88400DAFF020EDF6449EF54F04BEF54F059EF56
:10A8940054F020EE27F0A951D926AA51DA22DECFAE
:10A8A400A5F0DECFA6F0DECFA7F0DECFA8F0A5514D
:10A8B400A611A711A811D8A462EF54F064EF54F0C4
:10A8C400AEEF54F020EE07F0A951D926AA51DA22AE
:10A8D400DECF97F0DDCF98F09751996F98519A6F2A
:10A8E4009B6B9C6B93C09DF094C09EF095C09FF0B1
:10A8F40096C0A0F0060E84EF54F0D890A0339F3396
:10A904009E339D33E82E7FEF54F099519D5D9A510B
:10A914009E599B519F599C51A059D8A094EF54F033
:10A9240096EF54F098EF54F015EF54F020EE27F022
:10A93400A951D926AA51DA2210EE16F09151E12636
:10A944009251E222DECFE6FFDECFE6FFDECFE6FF66
:10A95400DECFE6FF51EF55F020EE09F0A951D926DC
:10A96400AA51DA22DECF97F0DDCF98F09751996F94
:10A9740098519A6F9B6B9C6B090ED89099379A37B4
:10A984009B379C37E82EBFEF54F099C0A1F09AC0D2
:10A99400A2F09BC0A3F09CC0A4F025EF55F091C099
:10A9A40077F092C078F0A5C079F0A6C07AF0A7C07D
:10A9B4007BF0A8C07CF0AFEC55F077C0A5F078C070
:10A9C400A6F079C0A7F07AC0A8F00001A5290AE191
:10A9D400A62908E1A72906E1A829D8A4F4EF54F090
:10A9E400F6EF54F0F9EF54F0010EAEEF55F0A85124
:10A9F400A711A61109E1020EA55DD8A004EF55F038
:10AA040006EF55F015EF54F020EE17F0A951D926B2
:10AA1400AA51DA22DE50A55DDE50A659DE50A759B0
:10AA2400DE50A859D8A019EF55F01BEF55F01DEFD3
:10AA340055F015EF54F0A151935FA251945BA351CB
:10AA4400955BA451965BA151935DA2519459A35176
:10AA54009559A4519659D8B032EF55F034EF55F0CA
:10AA6400D1EF54F0A9C00DF0AAC00EF0A5C00FF0AC
:10AA7400A6C010F0A7C011F0A8C012F0B7EC44F0C3
:10AA8400000120EE16F09151D9269251DA220DC020
:10AA9400DEFF0EC0DEFF0FC0DEFF10C0DEFF20EEC3
:10AAA40012F09151D9269251DA22A5C0DEFFA6C038
:10AAB400DEFFA7C0DEFFA8C0DEFF20EE16F0915136
:10AAC400D9269251DA22DE50DE10DE10DE10D8A430
:10AAD4006EEF55F070EF55F072EF55F015EF54F03E
:10AAE40093C097F094C098F095C099F096C09AF0EE
:10AAF4000A0E82EF55F0D8909A33993398339733EE
:10AB0400E82E7DEF55F020EE16F09151D9269251A2
:10AB1400DA229751DE269851DE229951DE229A518B
:10AB2400DE22FF0E9315976F010E9415986F9751BF
:10AB3400A925996F9851AA219A6F330E9927000E6F
:10AB44009A2320EE1AF09151D9269251DA2299C013
:10AB5400DEFF9AC0DDFF000E120077C0D9FF78C077
:10AB6400DAFFDECF8FF0DDCF90F000017C517B1156
:10AB74007A1109E1020E795DD8A0C3EF55F0C5EF53
:10AB840055F0DAEF55F020EE17F08F51D926905199
:10AB9400DA22DE50795DDE507A59DE507B59DE5080
:10ABA4007C59D8A0D8EF55F0DAEF55F0E4EF55F022
:10ABB400010E876F000E886F000E896F000E8A6F7A
:10ABC400A6EF57F08769886989698A6989EF57F020
:10ABD40079C08DF07AC08EF0D8908E317E6F8D3131
:10ABE4007D6F7D518D277E518E238FC070F090C074
:10ABF40071F020EE23F08F51D9269051DA22DECF66
:10AC04007DF0DECF7EF0DECF7FF0DECF80F08DC032
:10AC140081F08EC082F0090E836FD8908233813325
:10AC2400832F0FEF56F081517D25726F82517E2163
:10AC3400736F000E7F21746F000E8021756F51ECCD
:10AC440044F00009D8B429EF56F02BEF56F02DEF5D
:10AC540056F0A6EF57F0FF0E00018D157D6F010E23
:10AC64008E157E6F7D518F257F6F7E519021806F71
:10AC7400330E7F25D96E000E8021DA6EDF50816F8E
:10AC840081518B6F8C6B8D4B8E2B8FC070F090C06D
:10AC940071F020EE23F08F51D9269051DA22DECFC5
:10ACA4007DF0DECF7EF0DECF7FF0DECF80F08DC092
:10ACB40081F08EC082F0090E836FD8908233813385
:10ACC400832F5FEF56F081517D25726F82517E2173
:10ACD400736F000E7F21746F000E8021756F51EC2D
:10ACE40044F00009D8B479EF56F07BEF56F07DEFCD
:10ACF40056F0A6EF57F0FF0E00018D157D6F010E83
:10AD04008E157E6F7D518F257F6F7E519021806FD0
:10AD1400330E7F25D96E000E8021DA6EDF50816FED
:10AD24008151836F826B82518B1383518C1379B160
:10AD34009EEF56F0A0EF56F0A8EF56F0FF0E8B15DD
:10AD4400856F0F0E8C15866FB8EF56F08BC07DF0B3
:10AD54008CC07EF0040E7F6FD8907E337D337F2FBE
:10AD6400AEEF56F07DC085F07EC086F085C087F0DA
:10AD740086C088F0896B8A6BA6EF57F08FC070F09D
:10AD840090C071F020EE23F08F51D9269051DA2231
:10AD9400DECF7DF0DECF7EF0DECF7FF0DECF80F041
:10ADA40079C081F07AC082F07BC083F07CC084F0EB
:10ADB40082C081F083C082F084C083F0846B7D51B3
:10ADC4008125726F7E518221736F7F518321746F4D
:10ADD40080518421756F51EC44F00009D8B4F5EF2B
:10ADE40056F0F7EF56F0F9EF56F0A6EF57F079C0AA
:10ADF4007DF07AC07EF0D89000017D377E37FF0E5B
:10AE04007D157F6F010E7E15806F7F518F25816FB9
:10AE140080519021826F330E8125016E000E8221B4
:10AE2400026ED1EC3EF001C087F002C088F0000150
:10AE3400896B8A6BA6EF57F08FC070F090C071F0E9
:10AE440020EE23F08F51D9269051DA22DECF7DF007
:10AE5400DECF7EF0DECF7FF0DECF80F079C081F0F0
:10AE64007AC082F07BC083F07CC084F0080E40EF8F
:10AE740057F0D8908433833382338133E82E3BEF09
:10AE840057F07D518125726F7E518221736F7F51FE
:10AE94008321746F80518421756F51EC44F0000953
:10AEA400D8B457EF57F059EF57F05BEF57F0A6EFD0
:10AEB40057F079C07DF07AC07EF00001D8907D37DC
:10AEC4007E37D8907D377E37FF0E7D157F6F010E5C
:10AED4007E15806F7F518F25816F80519021826F05
:10AEE400330E8125016E000E8221026EF5EC43F0D3
:10AEF400FF0E01140001876FFF0E0214886FFF0E0E
:10AF04000314896F0F0E04148A6FA6EF57F08FC0D5
:10AF1400D9FF90C0DAFFDF507D6F7E6B7E51000A4F
:10AF2400D8B497EF57F0DAEF55F07D51010AD8B451
:10AF3400EAEF55F0030AD8B4C0EF56F0010AD8B4CA
:10AF44001EEF57F0DAEF55F087C077F088C078F03D
:10AF540089C079F08AC07AF01200B5C0D9FFB6C0B2
:10AF6400DAFFDECFC9F0DDCFCAF0000120EE0EF02B
:10AF7400B551D926B651DA22DECFB9F0DECFBAF018
:10AF8400DECFBBF0DECFBCF0200EB925C56F000EBE
:10AF9400BA21C66F000EBB21C76F000EBC21C86F5B
:10AFA40020EE16F0B551D926B651DA22DE50DE1065
:10AFB400DE10DE10D8B4E1EF57F0E3EF57F0EEEF18
:10AFC40057F0C85109E1200EC75DD8A0ECEF57F047
:10AFD400EEEF57F0F1EF57F0040EB9EF59F0FF0E12
:10AFE400C515B96F010EC615BA6F000EC715BB6F34
:10AFF400000EC815BC6FB951BA11BB11BC11D8A44D
:10B0040006EF58F008EF58F090EF59F020EE16F0E4
:10B01400B551D926B651DA22DE2A000EDE22DE220E
:10B02400DE2220EE12F0B551D926B651DA22DE50D6
:10B03400DE10DE10DE10D8A422EF58F024EF58F012
:10B0440062EF58F020EE07F0C951D926CA51DA222E
:10B05400DECFB9F0DDCFBAF0B951BB6FBA51BC6FD6
:10B06400BD6BBE6BC5C0BFF0C6C0C0F0C7C0C1F0E9
:10B07400C8C0C2F0060E44EF58F0D890C233C133B2
:10B08400C033BF33E82E3FEF58F0BB51BF5DBC5116
:10B09400C059BD51C159BE51C259D8A054EF58F03E
:10B0A40056EF58F090EF59F020EE16F0B551D9262E
:10B0B400B651DA22DE6ADE6ADE6ADD6AEEEF57F046
:10B0C40020EE09F0C951D926CA51DA22DECFB9F0EF
:10B0D400DDCFBAF0FF0EB925BB6FFF0EBA21BC6FEE
:10B0E400C5C0BDF0C6C0BEF0C7C0BFF0C8C0C0F088
:10B0F4000A0E82EF58F0D890C033BF33BE33BD334D
:10B10400E82E7DEF58F0BB51BD15C16FBC51BE1583
:10B11400C26F000EBF15C36F000EC015C46FC151BE
:10B12400C211C311C411D8A49AEF58F09CEF58F07F
:10B1340090EF59F0B5C077F0B6C078F020EE12F079
:10B14400B551D926B651DA22DECF79F0DECF7AF0C6
:10B15400DECF7BF0DECF7CF0AFEC55F077C0CBF0E8
:10B1640078C0CCF079C0CDF07AC0CEF00001CE51D9
:10B17400CD11CC1107E1020ECB5DD8B0C4EF58F06D
:10B18400C6EF58F0C9EF58F0020EB9EF59F0CB29C9
:10B194000AE1CC2908E1CD2906E1CE29D8A4D5EFCE
:10B1A40058F0D7EF58F0DAEF58F0010EB9EF59F034
:10B1B40020EE17F0C951D926CA51DA22DE50CB5DF0
:10B1C400DE50CC59DE50CD59DE50CE59D8A0EDEF2B
:10B1D40058F0EFEF58F064EF59F0B751B811D8A414
:10B1E400F6EF58F0F8EF58F004EF59F020EE16F0AF
:10B1F400B551D926B651DA22DE6ADE6ADE6ADD6A24
:10B20400EEEF57F0B5C098F0B6C099F020EE12F00A
:10B21400B551D926B651DA22DECF9AF0DECF9BF0B3
:10B22400DECF9CF0DECF9DF0DEEC62F098C0CBF078
:10B2340099C0CCF09AC0CDF09BC0CEF00001CB51A8
:10B24400CC11CD11CE11D8A42AEF59F02CEF59F01E
:10B254002FEF59F0070EB9EF59F0CB05CC11CD11F2
:10B26400CE11D8A438EF59F03AEF59F03CEF59F029
:10B27400C6EF58F0CB290AE1CC2908E1CD2906E133
:10B28400CE29D8A448EF59F04AEF59F04CEF59F0C1
:10B29400D7EF58F0C9C070F0CAC071F0CBC072F0DB
:10B2A400CCC073F0CDC074F0CEC075F0B6EC4AF0EB
:10B2B4000009D8B460EF59F062EF59F064EF59F027
:10B2C400D7EF58F0000120EE12F0B551D926B6514F
:10B2D400DA22CBC0DEFFCCC0DEFFCDC0DEFFCEC0A5
:10B2E400DEFFC9C00DF0CAC00EF0CBC00FF0CCC059
:10B2F40010F0CDC011F0CEC012F0B7EC44F0000154
:10B3040020EE16F0B551D926B651DA220DC0DEFF73
:10B314000EC0DEFF0FC0DEFF10C0DEFF20EE0EF019
:10B32400B551D926B651DA22C5C0DEFFC6C0DEFF4C
:10B33400C7C0DEFFC8C0DEFFFF0EC515B96F010E22
:10B34400C615BA6FB951C925BB6FBA51CA21BC6FB2
:10B35400330EBB27000EBC2320EE1AF0B551D926BC
:10B36400B651DA22BBC0DEFFBCC0DDFF000E120006
:10B37400B4EF5BF0000EDFEF5BF0020E0101DA6F59
:10B38400020E266F000E256F23C0D9FF24C0DAFFFA
:10B3940011EE00F00C0EDBCFE3FFE806FCE2DF5118
:10B3A400D8A4D7EF59F0D9EF59F0E2EF59F0090ECC
:10B3B400D890083709370A370B37E82EDAEF59F0F7
:10B3C4000551041108E10205020E0359D8B0EDEF4E
:10B3D40059F0EFEF59F005EF5AF0010E2D6F08C147
:10B3E4000CF009C10DF00AC10EF00BC10FF0080EEC
:10B3F4000AEC5EF020EE29F0040EEBCFDBFFE8064A
:10B40400FCE219EF5AF0000E2D6F08C10CF009C1CF
:10B414000DF00AC10EF00BC10FF0090E0AEC5EF03C
:10B4240020EE29F0040EEBCFDBFFE806FCE2295006
:10B43400D8B41FEF5AF021EF5AF02CEF5AF020EE57
:10B444000CF02350D9262450DA22FE0EDF6E010EB2
:10B45400DFEF5BF0000E0101156F000E166F040E96
:10B46400176F000E186F20EE0CF02350D9262450CD
:10B47400DA22030EDF6E29EF5AF00101155116117D
:10B4840017111811D8B449EF5AF04BEF5AF08FEF57
:10B494005AF01507000E165B175B185B5B0EF66E11
:10B4A400FF0EF76EF86A0900F5CF25F00900F5CF15
:10B4B40026F002D868EF5AF00500FA6E2550FD6EAA
:10B4C4002650FE6EFF6AFA50FF0E12002E6E2E28D2
:10B4D400D8B46FEF5AF071EF5AF029EF5AF0FE0E1C
:10B4E4002E18D8A478EF5AF07AEF5AF085EF5AF074
:10B4F40020EE0CF02350D9262450DA22020EDF6EFF
:10B50400020EDFEF5BF020EE0CF02350D92624501E
:10B51400DA22FE0EDF6E29EF5AF020EE0CF02350F3
:10B52400D9262450DA22FE0EDF6E29EF5AF00101EB
:10B534000251031104110511D8B4A3EF5AF0A5EF79
:10B544005AF049EF5BF023C0D9FF24C0DAFFDECF05
:10B5540000F1DDCF01F120EE06F02350D92624506E
:10B56400DA22DECF06F1DDCF07F10051256E01515D
:10B57400266E276A286A2550025F2650035B2750EF
:10B58400045B2850055B0051255F0151265B06C111
:10B5940001F007C102F0000E046E036800C105F05B
:10B5A40001C106F00EEC4CF006C101F007C102F037
:10B5B40000C103F001C104F05D0EF66EFF0EF76EDC
:10B5C400F86A0900F5CF25F00900F5CF26F002D876
:10B5D400F5EF5AF00500FA6E2550FD6E2650FE6E0A
:10B5E400FF6AFA501200010125512611D8A4FDEF7B
:10B5F4005AF0FFEF5AF082EF5AF05B0EF66EFF0E30
:10B60400F76EF86A0900F5CF25F00900F5CF26F0AA
:10B6140002D817EF5BF00500FA6E2550FD6E265038
:10B62400FE6EFF6AFA50FF0E12005B0EF66EFF0EFE
:10B63400F76EF86A0900F5CF25F00900F5CF26F07A
:10B6440002D82FEF5BF00500FA6E2550FD6E2650F0
:10B65400FE6EFF6AFA50FF0E12000101025103113F
:10B6640004110511D8B439EF5BF03BEF5BF043EF05
:10B674005BF020EE0CF02350D9262450DA22030E7E
:10B68400DF6E020E266F000E256F29EF5AF02D5142
:10B69400D8A44FEF5BF051EF5BF05CEF5BF0000E72
:10B6A4000C6E000E0D6E000E0E6E000E0F6E050E6B
:10B6B4000AEC5EF08B845B0EF66EFF0EF76EF86A92
:10B6C4000900F5CF25F00900F5CF26F002D875EF73
:10B6D4005BF00500FA6E2550FD6E2650FE6EFF6A83
:10B6E400FA50FF0E120020EE0CF02350D9262450FD
:10B6F400DA22000EDF6E010E0101DA6FBCEF59F0A1
:10B7040020EE0CF02350D9262450DA22FF0EDF6EEF
:10B71400000E0C6E000E0D6E000E0E6E000E0F6EFF
:10B72400050E0AEC5EF08B845B0EF66EFF0EF76E70
:10B73400F86A0900F5CF25F00900F5CF26F002D804
:10B74400AEEF5BF00500FA6E2550FD6E2650FE6EDE
:10B75400FF6AFA50FF0E1200010E0101DA6FFF0EAC
:10B76400DFEF5BF020EE0CF02350D9262450DA22D0
:10B77400DF50256E266A2650000AD8B4C4EF5BF069
:10B7840095EF5BF02550000AD8B4BCEF59F0010ADC
:10B79400D8B4BFEF59F0030AD8B499EF5AF0010AAC
:10B7A400D8B43FEF5AF0FD0AD8B482EF5BF0010A37
:10B7B400D8B495EF5BF095EF5BF012000BC0D9FFA6
:10B7C4000CC0DAFFDECF16F0DDCF17F01C0E092413
:10B7D4001A6E000E0A201B6E1AC001F01BC002F084
:10B7E400000E046E200E036E000E066E0B0E056E28
:10B7F400B8EC3EF0000E196E000E186E18C01CF066
:10B8040019C01DF0000E156E080E146E1C5016247F
:10B814000D6E1D5017200E6E0DC0F6FF0EC0F7FF03
:10B82400F86A0800F5502E0AD8A41BEF5CF01DEF4F
:10B834005CF097EF5CF01C5016240D6E1D50172021
:10B844000E6E0DC0F6FF0EC0F7FFF86A0800F5CFC4
:10B854001EF01C4A1D2A2E0E1E18D8A434EF5CF0CC
:10B8640036EF5CF04FEF5CF01D5009E1030E1C5CF9
:10B87400D8A03FEF5CF041EF5CF043EF5CF04FEF9A
:10B884005CF018501A24D96E19501B20DA6E1EC0B1
:10B89400DFFF184A192A1DEF5CF02F0E1E18D8B4CA
:10B8A40056EF5CF058EF5CF06CEF5CF05C0E1E1829
:10B8B400D8B45FEF5CF061EF5CF06CEF5CF0200EED
:10B8C4001E6467EF5CF069EF5CF06CEF5CF0060EF1
:10B8D40009EF5EF01C5016240D6E1D5017200E6EDD
:10B8E4000BC0D9FF0CC0DAFF0DC0DEFF0EC0DDFFB8
:10B8F400200E1E6480EF5CF082EF5CF088EF5CF059
:10B90400000E106E200E0F6E8CEF5CF0000E106EA9
:10B91400240E0F6E20EE0BF01A50D9261B50DA229B
:10B924000FC0DFFF000E09EF5EF01C5016240D6EF1
:10B934001D5017200E6E0DC0F6FF0EC0F7FFF86AFB
:10B944000800F5CF1EF01C4A1D2A210E1E60ADEF23
:10B954005CF0AFEF5CF0B1EF5CF0C1EF5DF02F0E87
:10B964001E18D8B4B8EF5CF0BAEF5CF0C7EF5CF027
:10B974005C0E1E18D8A4C1EF5CF0C3EF5CF0F3EFCB
:10B984005CF0C7EF5CF01C4A1D2A1C5016240D6E97
:10B994001D5017200E6E0DC0F6FF0EC0F7FFF86A9B
:10B9A4000800F5502F0AD8B4DAEF5CF0DCEF5CF055
:10B9B400C5EF5CF01C5016240D6E1D5017200E6E42
:10B9C4000DC0F6FF0EC0F7FFF86A0800F5505C0AD8
:10B9D400D8B4EFEF5CF0F1EF5CF0C5EF5CF0C1EFD1
:10B9E4005DF02E0E1E18D8B4FAEF5CF0FCEF5CF09C
:10B9F40007EF5DF01450185C15501958D8A005EFE6
:10BA04005DF007EF5DF026EF5DF00B0E14181510D6
:10BA1400D8B40FEF5DF011EF5DF069EF5CF02E0E1E
:10BA24001E18D8B418EF5DF01AEF5DF01CEF5DF04E
:10BA340069EF5CF0000E196E080E186E000E156E9C
:10BA44000B0E146E97EF5CF07F0E1E642CEF5DF00E
:10BA54002EEF5DF03EEF5DF01E507F0B0D6E0E6A13
:10BA6400870E0D24F66EFE0E0E20F76EF86A000E99
:10BA7400F8220800F5CF1EF01E5018EC3EF00150DD
:10BA84000210D8B448EF5DF04AEF5DF08FEF5DF03F
:10BA94001C5016240D6E1D5017200E6E0DC0F6FF9F
:10BAA4000EC0F7FFF86A0800F5CF13F01C4A1D2AF0
:10BAB40013501DEC3EF001500210D8B464EF5DF059
:10BAC40066EF5DF069EF5CF0FF0E14240D6EFF0E5F
:10BAD40015200E6E0D50185C0E501958D8A075EF35
:10BAE4005DF077EF5DF079EF5DF069EF5CF0185091
:10BAF4001A24D96E19501B20DA6E1EC0DFFF184AB3
:10BB0400192A18501A24D96E19501B20DA6E13C042
:10BB1400DFFF184A192A97EF5CF08B0E016EFF0EB7
:10BB2400026E1EC003F0046A82EC40F00150021061
:10BB3400D8B49FEF5DF0A1EF5DF0A3EF5DF069EF86
:10BB44005CF0600E1E64A9EF5DF0ABEF5DF0B5EF45
:10BB54005DF07B0E1E60B1EF5DF0B3EF5DF0B5EF0D
:10BB64005DF0200E1E5E18501A24D96E19501B2049
:10BB7400DA6E1EC0DFFF184A192A97EF5CF01C50DA
:10BB840016240D6E1D5017200E6E0BC0D9FF0CC06D
:10BB9400DAFF0DC0DEFF0EC0DDFF18501910D8A467
:10BBA400D6EF5DF0D8EF5DF0DAEF5DF069EF5CF0B1
:10BBB4001AC0D9FF1BC0DAFFE50EDE18D8A4E5EFE2
:10BBC4005DF0E7EF5DF0EDEF5DF01AC0D9FF1BC04B
:10BBD400DAFF050EDF6E200E1E64F3EF5DF0F5EF65
:10BBE4005DF0FBEF5DF0000E126E000E116EFFEFC4
:10BBF4005DF0000E126E040E116E20EE0BF01A5062
:10BC0400D9261B50DA2211C0DFFF94EF5CF012003A
:10BC14001D6E8B94170E016E000E026E0C0E036ED9
:10BC2400000E046E000E066E040E056E7DEC3FF0F1
:10BC34005B0EF66EFF0EF76EF86A0900F5CF11F091
:10BC44000900F5CF12F002D83FEF5EF00500FA6E5E
:10BC54001150FD6E1250FE6EFF6AFA501D50040D15
:10BC6400070EF324F66EFF0EF420F76EF86A000E4A
:10BC7400F8220800F550400912005B0EF66EFF0E24
:10BC8400F76EF86A0900F5CF11F00900F5CF12F04C
:10BC940002D857EF5EF00500FA6E1150FD6E125097
:10BCA400FE6EFF6AFA501A5012005B0EF66EFF0E1B
:10BCB400F76EF86A0900F5CF11F00900F5CF12F01C
:10BCC40002D86FEF5EF00500FA6E1150FD6E12504F
:10BCD400FE6EFF6AFA50195012005B0EF66EFF0EEC
:10BCE400F76EF86A0900F5CF11F00900F5CF12F0EC
:10BCF40002D887EF5EF00500FA6E1150FD6E125007
:10BD0400FE6EFF6AFA50185012005B0EF66EFF0EBC
:10BD1400F76EF86A0900F5CF11F00900F5CF12F0BB
:10BD240002D89FEF5EF00500FA6E1150FD6E1250BE
:10BD3400FE6EFF6AFA50175012005B0EF66EFF0E8D
:10BD4400F76EF86A0900F5CF11F00900F5CF12F08B
:10BD540002D8C7EF5EF00500FA6E1150FD6E125066
:10BD6400FE6EFF6AFA501D50040D010EF326000EFC
:10BD7400F422070EF324F66EFF0EF420F76EF86A31
:10BD8400000EF8220800F5501200050E1D18D8A464
:10BD9400CEEF5EF0D0EF5EF0E8EF5EF05B0EF66E95
:10BDA400FF0EF76EF86A0900F5CF11F00900F5CF20
:10BDB40012F002D8E8EF5EF00500FA6E1150FD6E45
:10BDC4001250FE6EFF6AFA50FF0E1200000E1C6E37
:10BDD400140E1B6E5B0EF66EFF0EF76EF86A09000A
:10BDE400F5CF11F00900F5CF12F002D804EF5FF09F
:10BDF4000500FA6E1150FD6E1250FE6EFF6AFA5085
:10BE0400FF0E12001E6E1B06D8A01C061E28D8A406
:10BE14000EEF5FF010EF5FF019EF5FF01B501C1096
:10BE2400D8A417EF5FF019EF5FF0ECEF5EF01D5050
:10BE3400040D020EF326000EF422070EF324F66E10
:10BE4400FF0EF420F76EF86A000EF8220800F55091
:10BE5400020AD8A430EF5FF032EF5FF04FEF5FF0EB
:10BE64001EC01FF05B0EF66EFF0EF76EF86A090037
:10BE7400F5CF11F00900F5CF12F002D84CEF5FF0C6
:10BE84000500FA6E1150FD6E1250FE6EFF6AFA50F4
:10BE9400FF0E12001E6E22EF60F01D50040D020E04
:10BEA400F326000EF422070EF324F66EFF0EF420A0
:10BEB400F76EF86A000EF8220800F550E806D8A4D8
:10BEC40066EF5FF068EF5FF0A5EF5FF0000E136EB2
:10BED400000E146E0A0E156E000E166E5B0EF66ED4
:10BEE400FF0EF76EF86A0900F5CF11F00900F5CFDF
:10BEF40012F002D888EF5FF00500FA6E1150FD6E63
:10BF04001250FE6EFF6AFA50FF0E12001E6E1306E8
:10BF1400000E145A155A165A1E50D8A494EF5FF006
:10BF240096EF5FF0A1EF5FF0135014101510161088
:10BF3400D8A49FEF5FF0A1EF5FF070EF5FF0000E09
:10BF44001E6E22EF60F01D50040D020EF326000E4B
:10BF5400F422070EF324F66EFF0EF420F76EF86A4F
:10BF6400000EF8220800F550040AD8A4BCEF5FF0D4
:10BF7400BEEF5FF022EF60F05B0EF66EFF0EF76E21
:10BF8400F86A0900F5CF11F00900F5CF12F002D8D4
:10BF9400D6EF5FF00500FA6E1150FD6E1250FE6E82
:10BFA400FF6AFA50FF0E1200226E5B0EF66EFF0E51
:10BFB400F76EF86A0900F5CF11F00900F5CF12F019
:10BFC40002D8EFEF5FF00500FA6E1150FD6E1250CB
:10BFD400FE6EFF6AFA50FF0E1200216E5B0EF66EC3
:10BFE400FF0EF76EF86A0900F5CF11F00900F5CFDE
:10BFF40012F002D808EF60F00500FA6E1150FD6EE1
:10C004001250FE6EFF6AFA50FF0E1200206E5B0E95
:10C01400F66EFF0EF76EF86A0900F5CF11F009000D
:10C02400F5CF12F002D821EF60F00500FA6E11503E
:10C03400FD6E1250FE6EFF6AFA50FF0E12001F6E64
:10C044005B0EF66EFF0EF76EF86A0900F5CF11F07D
:10C054000900F5CF12F002D83AEF60F00500FA6E4D
:10C064001150FD6E1250FE6EFF6AFA50FF0E120060
:10C074001D50040D030EF326000EF422070EF324C4
:10C08400F66EFF0EF420F76EF86A000EF822080030
:10C09400F5500009D8A451EF60F053EF60F054EF6D
:10C0A40060F08B8420EE1EF000EE0CF0040EDBCF6B
:10C0B400EBFFE806FCE21200020E0001976F7C51D0
:10C0C4007B117A1109E1020E795DD8A06CEF60F062
:10C0D4006EEF60F0DCEF62F020EE17F07751D926B6
:10C0E4007851DA22DE50795DDE507A59DE507B5980
:10C0F400DE507C59D8B081EF60F083EF60F0DCEF64
:10C1040062F0BFEF62F079C095F07AC096F0D890F3
:10C114009631826F9531816F815195278251962393
:10C1240077C070F078C071F020EE23F07751D926F3
:10C134007851DA22DECF81F0DECF82F0DECF83F0D9
:10C14400DECF84F095C085F096C086F0090E876F27
:10C15400D89086338533872FAAEF60F085518125E7
:10C16400726F86518221736F000E8321746F000EEB
:10C174008421756F51EC44F00001976F9751D8B446
:10C18400C6EF60F0C8EF60F0CAEF60F0DCEF62F079
:10C19400FF0E9515816F010E9615826F81517725DB
:10C1A400836F82517821846F330E8325936F000E41
:10C1B4008421946F954B962B79B1E3EF60F0E5EF12
:10C1C40060F0EAEF60F07DC08FF0906B04EF61F0F7
:10C1D4007D51816F826B813B823BF00E82178151CE
:10C1E4000F0B8213F00E811793C0D9FF94C0DAFFAE
:10C1F400DF500F0B836F846B815183118F6F8251DA
:10C204008411906F93C0D9FF94C0DAFF8FC0DFFF11
:10C2140020EE03F07751D9267851DA22010EDF6E31
:10C2240077C070F078C071F020EE23F07751D926F2
:10C234007851DA22DECF81F0DECF82F0DECF83F0D8
:10C24400DECF84F095C085F096C086F0090E876F26
:10C25400D89086338533872F2AEF61F08551812565
:10C26400726F86518221736F000E8321746F000EEA
:10C274008421756F51EC44F00001976F9751D8B445
:10C2840046EF61F048EF61F04AEF61F0DCEF62F0F5
:10C29400FF0E9515816F010E9615826F81517725DA
:10C2A400836F82517821846F330E8325936F000E40
:10C2B4008421946F79B161EF61F063EF61F081EFF4
:10C2C40061F07DC081F07EC082F07FC083F080C0C9
:10C2D40084F082C081F083C082F084C083F0846BD8
:10C2E4000F0E811793C0D9FF94C0DAFFDF50F00B13
:10C2F4008111856F8551916F926B97EF61F07DC0CD
:10C3040081F07EC082F07FC083F080C084F0050E8F
:10C3140091EF61F0D8908433833382338133E82EF4
:10C324008CEF61F08151916F926B93C0D9FF94C0EF
:10C33400DAFF91C0DFFF20EE03F07751D926785160
:10C34400DA22010EDF6EDCEF62F077C070F078C0A5
:10C3540071F020EE23F07751D9267851DA22DECF1E
:10C3640081F0DECF82F0DECF83F0DECF84F079C0BF
:10C3740085F07AC086F07BC087F07CC088F086C0E8
:10C3840085F087C086F088C087F0886B8151852549
:10C39400726F82518621736F83518721746F845128
:10C3A4008821756F51EC44F00001976F9751D8B410
:10C3B400DEEF61F0E0EF61F0E2EF61F0DCEF62F0FC
:10C3C40079C081F07AC082F0D89081378237FF0E2D
:10C3D4008115836F010E8215846F83517725856FD4
:10C3E40084517821866F330E8525016E000E8621D7
:10C3F400026E7DC003F07EC004F08BEC3EF00001C1
:10C4040020EE03F07751D9267851DA22010EDF6E3F
:10C41400DCEF62F077C070F078C071F020EE23F0AA
:10C424007751D9267851DA22DECF81F0DECF82F03F
:10C43400DECF83F0DECF84F079C085F07AC086F059
:10C444007BC087F07CC088F0080E2EEF62F0D89095
:10C454008833873386338533E82E29EF62F08151A0
:10C464008525726F82518621736F83518721746F82
:10C4740084518821756F51EC44F00001976F9751F6
:10C48400D8B447EF62F049EF62F04BEF62F0DCEFB3
:10C4940062F079C081F07AC082F0D8908137823717
:10C4A400D89081378237FF0E8115836F010E821574
:10C4B400846F83517725856F84517821866F330E7D
:10C4C4008525016E000E8621026EF5EC43F0000E08
:10C4D40001140001876F000E0214886F000E03140C
:10C4E400896FF00E04148A6FFF0E7D158B6FFF0E9B
:10C4F4007E158C6FFF0E7F158D6F0F0E80158E6F5E
:10C5040087518B117D6F88518C117E6F89518D11EC
:10C514007F6F8A518E11806F79C081F07AC082F06A
:10C52400D89081378237D89081378237FF0E8115B2
:10C53400836F010E8215846F83517725856F845133
:10C544007821866F330E8525016E000E8621026EDA
:10C554007DC003F07EC004F07FC005F080C006F00B
:10C56400E9EC40F0000120EE03F07751D926785130
:10C57400DA22010EDF6EDCEF62F077C0D9FF78C0FB
:10C58400DAFFDF50816F826B8251000AD8B4CDEF9D
:10C5940062F0DCEF62F08151010AD8B485EF60F0FB
:10C5A400030AD8B4A7EF61F0010AD8B40CEF62F023
:10C5B400DCEF62F09751120098C0D9FF99C0DAFFFE
:10C5C400DECFAFF0DDCFB0F000019A519B119C118A
:10C5D4009D11D8A4F0EF62F0F2EF62F02AEF63F05D
:10C5E40020EE0BF0AF51D926B051DA22DECFA7F0FE
:10C5F400DECFA8F0DECFA9F0DECFAAF0A751A811B4
:10C60400A911AA11D8B409EF63F00BEF63F020EF7E
:10C6140063F020EE17F0AF51D926B051DA22DE5084
:10C62400A75DDE50A859DE50A959DE50AA59D8A0FA
:10C634001EEF63F020EF63F08FEF63F0010EA76F3E
:10C64400000EA86F000EA96F000EAA6F8FEF63F0A3
:10C6540098C077F099C078F09AC079F09BC07AF0CE
:10C664009CC07BF09DC07CF0AFEC55F077C0B1F07E
:10C6740078C0B2F079C0B3F07AC0B4F00001B4511C
:10C68400B311B21107E1020EB15DD8B04CEF63F003
:10C694004EEF63F058EF63F0010E986F000E996F40
:10C6A400000E9A6F000E9B6FB5EF65F0B1290AE199
:10C6B400B22908E1B32906E1B429D8A464EF63F0F0
:10C6C40066EF63F070EF63F0B1C098F0B2C099F018
:10C6D400B3C09AF0B4C09BF0B5EF65F020EE17F04C
:10C6E400AF51D926B051DA22DE50B15DDE50B259D5
:10C6F400DE50B359DE50B459D8B083EF63F085EF00
:10C7040063F087EF63F066EF63F09AC0A7F09BC015
:10C71400A8F09CC0A9F09DC0AAF020EE0FF0AF5184
:10C72400D926B051DA22DE50DE10DE10DE10D8A495
:10C734009EEF63F0A0EF63F0AAEF63F0000E986F32
:10C74400000E996F000E9A6F000E9B6FB5EF65F0A7
:10C75400000EAB6F000EAC6F000EAD6F000EAE6F2F
:10C764009A51A7190DE19B51A8190AE19C51A919E5
:10C7740007E19D51AA19D8A4C2EF63F0C4EF63F096
:10C784006AEF64F0010EA725AB6F000EA821AC6F11
:10C79400000EA921AD6F000EAA21AE6F20EE17F096
:10C7A400AF51D926B051DA22DE50AB5DDE50AC5920
:10C7B400DE50AD59DE50AE59D8A0E3EF63F0E5EF9B
:10C7C40063F0EDEF63F0020EAB6F000EAC6F000E82
:10C7D400AD6F000EAE6F98C077F099C078F0ABC023
:10C7E40079F0ACC07AF0ADC07BF0AEC07CF0AFECB9
:10C7F40055F077C0B1F078C0B2F079C0B3F07AC028
:10C80400B4F00001B105B211B311B411D8B40DEFF5
:10C8140064F00FEF64F066EF63F0B1290AE1B22926
:10C8240008E1B32906E1B429D8A41BEF64F01DEF95
:10C8340064F01FEF64F066EF63F0B151B211B3110D
:10C84400B411D8B428EF64F02AEF64F06AEF64F00E
:10C8540020EE0BF0AF51D926B051DA22DECFB1F081
:10C86400DECFB2F0DECFB3F0DECFB4F0B451B3110B
:10C87400B21109E1020EB15DD8A043EF64F045EFB7
:10C8840064F062EF64F020EE17F0AF51D926B05196
:10C89400DA22DE50B15DDE50B259DE50B359DE50BB
:10C8A400B459D8B058EF64F05AEF64F062EF64F012
:10C8B400B1C0A7F0B2C0A8F0B3C0A9F0B4C0AAF048
:10C8C400000EAB6F000EAC6F000EAD6F000EAE6FBE
:10C8D400AB51AC11AD11AE11D8A473EF64F075EF88
:10C8E40064F002EF65F0A7C0ABF0A8C0ACF0A9C03B
:10C8F400ADF0AAC0AEF0010EAB27000EAC23AD2301
:10C90400AE2320EE17F0AF51D926B051DA22DE5013
:10C91400AB5DDE50AC59DE50AD59DE50AE59D8A0F7
:10C9240096EF64F098EF64F0AFEF64F0020EAB6F33
:10C93400000EAC6F000EAD6F000EAE6FAA51A911C0
:10C94400A81107E1020EA75DD8B0ABEF64F0ADEF1C
:10C9540064F0AFEF64F0A0EF63F098C077F099C093
:10C9640078F0ABC079F0ACC07AF0ADC07BF0AEC06B
:10C974007CF0AFEC55F077C0B1F078C0B2F079C07C
:10C98400B3F07AC0B4F00001B151B211B311B411D3
:10C99400D8A4CFEF64F0D1EF64F0D3EF64F002EFEA
:10C9A40065F0B105B211B311B411D8B4DCEF64F081
:10C9B400DEEF64F066EF63F0B1290AE1B22908E121
:10C9C400B32906E1B429D8A4EAEF64F0ECEF64F0EB
:10C9D400EEEF64F066EF63F0A751AB190DE1A851D7
:10C9E400AC190AE1A951AD1907E1AA51AE19D8A4AD
:10C9F400FEEF64F000EF65F07DEF64F0A0EF63F00C
:10CA0400AFC077F0B0C078F0ABC079F0ACC07AF0CA
:10CA1400ADC07BF0AEC07CF0FF0E7D6FFF0E7E6F6D
:10CA2400FF0E7F6FFF0E806F5EEC60F00001A66F5B
:10CA3400A651D8A420EF65F022EF65F045EF65F02C
:10CA44009A519B119C119D11D8B42BEF65F02DEFD9
:10CA540065F045EF65F0AFC077F0B0C078F09AC0EC
:10CA640079F09BC07AF09CC07BF09DC07CF0ABC099
:10CA74007DF0ACC07EF0ADC07FF0AEC080F05EEC67
:10CA840060F00001A66FA651D8A44BEF65F04DEFFE
:10CA940065F097EF65F020EE0BF0AF51D926B05159
:10CAA400DA22ABC0DEFFACC0DEFFADC0DEFFAEC03D
:10CAB400DEFF20EE0FF0AF51D926B051DA2210EE8E
:10CAC40017F0AF51E126B051E222FE0EE624A26F28
:10CAD400FF0EE620A36FFF0EE620A46FFF0EE620F4
:10CAE400A56FDE50A25DDE50A359DE50A459DE507E
:10CAF400A559D8A080EF65F082EF65F08DEF65F061
:10CB040020EE0FF0AF51D926B051DA22DE06000E26
:10CB1400DE5ADE5ADE5A20EE04F0AF51D926B05167
:10CB2400DA22000EDB80ADEF65F0A605D8B49DEFE8
:10CB340065F09FEF65F0A9EF65F0010EAB6F000E95
:10CB4400AC6F000EAD6F000EAE6FADEF65F0AB696C
:10CB5400AC69AD69AE69ABC098F0ACC099F0ADC03A
:10CB64009AF0AEC09BF01200DCEF68F0000E07EF05
:10CB740069F0020E0101DA6F020E246F000E236FBA
:10CB840023C0D9FF24C0DAFF11EE00F00C0EDBCF76
:10CB9400E3FFE806FCE20551041108E10205020E78
:10CBA4000359D8B0D8EF65F0DAEF65F0DEEF65F041
:10CBB4000A0E2B6F31EF66F00B0E2B6F02C125F0BE
:10CBC40003C126F004C127F005C128F00A0EF0EFD6
:10CBD40065F0D8902832273226322532E82EEBEF42
:10CBE40065F025C02EF026C02FF027C030F028C0F5
:10CBF40031F02E502F1030103110D8A404EF66F00D
:10CC040006EF66F00CEF66F0010E2E26000E2F22C2
:10CC140030223122000E0C6E000E0D6E000E0E6ED0
:10CC2400000E0F6E0F0E0AEC5EF020EE29F0040EDB
:10CC3400EBCFDBFFE806FCE22950D8A424EF66F032
:10CC440026EF66F031EF66F02EC00CF02FC00DF029
:10CC540030C00EF031C00FF0130E0AEC5EF001018B
:10CC6400DF51D8A438EF66F03AEF66F043EF66F090
:10CC7400090ED890083709370A370B37E82E3BEFEF
:10CC840066F008C10CF009C10DF00AC10EF00BC129
:10CC94000FF02B510AEC5EF020EE29F0040EEBCFDE
:10CCA400DBFFE806FCE22950D8B45BEF66F05DEFE9
:10CCB40066F068EF66F020EE0CF02350D92624507D
:10CCC400DA22FF0EDF6EFF0E07EF69F020EE0CF0A4
:10CCD4002350D9262450DA22020EDF6E020E07EF0B
:10CCE40069F0020E010124192311D8A47CEF66F027
:10CCF4007EEF66F0B9EF66F00B0E2B19D8A485EF22
:10CD040066F087EF66F0A1EF66F05B0EF66EFF0E3D
:10CD1400F76EF86A0900F5CF25F00900F5CF26F083
:10CD240002D89FEF66F00500FA6E2550FD6E26507E
:10CD3400FE6EFF6AFA50FC0E1200B9EF66F05B0E4D
:10CD4400F66EFF0EF76EF86A0900F5CF25F00900BC
:10CD5400F5CF26F002D8B9EF66F00500FA6E25503B
:10CD6400FD6E2650FE6EFF6AFA50FE0E120023C0BE
:10CD7400D9FF24C0DAFFDECF00F1DDCF01F120EED0
:10CD840006F02350D9262450DA22DECF06F1DDCF77
:10CD940007F101010051256E0151266E276A286AA8
:10CDA4002550025F2650035B2750045B2850055B27
:10CDB4000051235F0151245B06C101F007C102F059
:10CDC40000C103F001C104F05D0EF66EFF0EF76EB4
:10CDD400F86A0900F5CF25F00900F5CF26F002D84E
:10CDE400FDEF66F00500FA6E2550FD6E2650FE6ECE
:10CDF400FF6AFA501200010123512411D8A405EF4F
:10CE040067F007EF67F070EF66F0020E246F000E14
:10CE1400236F5B0EF66EFF0EF76EF86A0900F5CF0E
:10CE240025F00900F5CF26F002D823EF67F00500BE
:10CE3400FA6E2550FD6E2650FE6EFF6AFA50FF0E04
:10CE440012005B0EF66EFF0EF76EF86A0900F5CF5E
:10CE540025F00900F5CF26F002D83BEF67F0050076
:10CE6400FA6E2550FD6E2650FE6EFF6AFA50FF0ED4
:10CE740012005B0EF66EFF0EF76EF86A0900F5CF2E
:10CE840025F00900F5CF26F002D853EF67F005002E
:10CE9400FA6E2550FD6E2650FE6EFF6AFA50FF0EA4
:10CEA40012001F0B050AD8B45AEF67F05CEF67F065
:10CEB40067EF67F020EE0CF02350D9262450DA22D5
:10CEC400FE0EDF6E030E07EF69F020EE0CF0235028
:10CED400D9262450DA22030EDF6E000E0101116FF1
:10CEE400000E126F0A0E136F000E146F64EF67F0DA
:10CEF40001011151121113111411D8B484EF67F008
:10CF040086EF67F04BEF68F01107000E125B135BBE
:10CF1400145B5B0EF66EFF0EF76EF86A0900F5CF30
:10CF240025F00900F5CF26F002D8A3EF67F005003D
:10CF3400FA6E2550FD6E2650FE6EFF6AFA50FF0E03
:10CF440012005B0EF66EFF0EF76EF86A0900F5CF5D
:10CF540025F00900F5CF26F002D8BBEF67F00500F5
:10CF6400FA6E2550FD6E2650FE6EFF6AFA50FF0ED3
:10CF7400120001012C6F2C51D8B4C3EF67F0C5EF38
:10CF840067F064EF67F00251031104110511D8A48E
:10CF9400CEEF67F0D0EF67F041EF68F0000E116F4D
:10CFA400000E126F0A0E136F000E146F0B0E2B1966
:10CFB400D8A4DFEF67F0E1EF67F01BEF68F05B0EDA
:10CFC400F66EFF0EF76EF86A0900F5CF25F009003A
:10CFD400F5CF26F002D8F9EF67F00500FA6E255078
:10CFE400FD6E2650FE6EFF6AFA50FD0E12005B0EB7
:10CFF400F66EFF0EF76EF86A0900F5CF25F009000A
:10D00400F5CF26F002D811EF68F00500FA6E25502E
:10D01400FD6E2650FE6EFF6AFA50FF0E120020EEDF
:10D024000CF02350D9262450DA22040EDF6E64EF6C
:10D0340067F08B845B0EF66EFF0EF76EF86A0900DC
:10D04400F5CF25F00900F5CF26F002D834EF68F0CB
:10D054000500FA6E2550FD6E2650FE6EFF6AFA50EA
:10D06400FF0E120020EE0CF02350D9262450DA22B1
:10D07400000EDF6E010E0101DA6FB8EF65F020EEED
:10D084000CF02350D9262450DA22020EDF6E70EF02
:10D0940066F020EE0CF02350D9262450DA22FE0E3E
:10D0A400DF6E64EF67F001011151121113111411B5
:10D0B400D8B45FEF68F061EF68F0ABEF68F0110788
:10D0C400000E125B135B145B5B0EF66EFF0EF76EC5
:10D0D400F86A0900F5CF25F00900F5CF26F002D84B
:10D0E4007EEF68F00500FA6E2550FD6E2650FE6E48
:10D0F400FF6AFA50FF0E120001012C6F2C51D8B4B4
:10D1040086EF68F088EF68F064EF67F08B845B0E5D
:10D11400F66EFF0EF76EF86A0900F5CF25F00900E8
:10D12400F5CF26F002D8A1EF68F00500FA6E25507D
:10D13400FD6E2650FE6EFF6AFA50FF0E120020EEBE
:10D144000CF02350D9262450DA22000EDF6E3CEF77
:10D1540068F0000E0C6E000E0D6E000E0E6E000ECA
:10D164000F6E050E0AEC5EF08B845B0EF66EFF0EFE
:10D17400F76EF86A0900F5CF25F00900F5CF26F01F
:10D1840002D8CFEF68F00500FA6E2550FD6E2650E8
:10D19400FE6EFF6AFA50FF0E120020EE0CF02350D0
:10D1A400D9262450DA22FF0EDF6E010E0101DA6F58
:10D1B40065EF66F020EE0CF02350D9262450DA22D5
:10D1C400DF50256E266A2650000AD8B4ECEF68F0CA
:10D1D400D7EF68F02550000AD8B4B8EF65F0010A1B
:10D1E400D8B4BBEF65F0030AD8B473EF66F0010A54
:10D1F400D8B47AEF67F0070AD8B455EF68F0FA0AA2
:10D20400D8B4ABEF68F0D7EF68F012000001E55135
:10D21400E611D8A410EF69F012EF69F015EF69F088
:10D22400090EE3EF6CF03F0EE917E70E7E6F000E78
:10D234007F6F970E806F010E816FE9C082F003EC5F
:10D2440079F00101996F9951D8A42BEF69F02DEF72
:10D2540069F0D1EF6CF097C19AF198C19BF19A0EE5
:10D264000001D76F010ED86FE7C0D9F0E8C0DAF03B
:10D2740071EC51F00101996F9951D8A444EF69F010
:10D2840046EF69F04FEF69F0C1AF4BEF69F04DEF36
:10D2940069F04FEF69F0060E996FE9C0EAF01C0ED1
:10D2A4000001EA17D8B459EF69F05BEF69F06CEF4D
:10D2B4006AF001019951D8B462EF69F064EF69F042
:10D2C4007AEF69F0040E9919D8A46BEF69F06DEF49
:10D2D40069F076EF69F09A0E0001DB6F010EDC6FE6
:10D2E40089EC45F00101996F0001E98795EF69F038
:10D2F4009EC1EAF0110E0001EA17D8B484EF69F078
:10D3040086EF69F08BEF69F0070E0101996F95EFD5
:10D3140069F0E9A590EF69F092EF69F095EF69F093
:10D32400080E0101996F01019951D8A49CEF69F08D
:10D334009EEF69F092EF6AF00001E9A7A4EF69F0AB
:10D34400A6EF69F092EF6AF097C108F098C109F06E
:10D35400B4C10AF0B5C10BF0D1EC41F008C08BF1B7
:10D3640009C08CF10AC08DF10BC08EF10E0E0101C3
:10D37400B425016E000EB521026E000E036E000E80
:10D38400046E460E056E560E066EE9EC40F0010181
:10D3940020EE0BF0B451D926B551DA22200EDF6EFF
:10D3A40097C105F098C106F0B4C107F0B5C108F003
:10D3B400000E096E000E0A6E000E0B6E000E0C6E4F
:10D3C4002FEC3FF01C0E0101B425016E000EB521B7
:10D3D400026E000E036E000E046E000E056E000E4B
:10D3E400066EE9EC40F0010120EE03F09751D926D6
:10D3F4009851DA22010EDF6E8B518C118D118E1132
:10D40400D8B407EF6AF009EF6AF092EF6AF020EE01
:10D414002FF09751D9269851DA22DECF7FF1DECF53
:10D4240080F1DECF81F1DECF82F19A0E0001986F98
:10D43400010E996F8BC19AF08CC19BF08DC19CF049
:10D444008EC19DF0000E9E6F000E9F6F000EA06FA8
:10D45400000EA16F58EC50F00101996F9951D8A4B6
:10D4640036EF6AF038EF6AF092EF6AF097C170F025
:10D4740098C171F07FC172F080C173F081C174F002
:10D4840082C175F051EC44F00101996FFF0E8B25B8
:10D494000001EA6FFF0E01018C210001EB6FFF0E0A
:10D4A40001018D210001EC6FFF0E01018E210001AD
:10D4B400ED6F010120EE0BF09751D9269851DA2235
:10D4C400EAC0DEFFEBC0DEFFECC0DEFFEDC0DEFF36
:10D4D40092EF6AF001019951D8A473EF6AF075EFE5
:10D4E4006AF092EF6AF09EA97AEF6AF07CEF6AF034
:10D4F40080EF6AF0040E996F92EF6AF00001E9A3DD
:10D5040086EF6AF088EF6AF092EF6AF001019EA15B
:10D514008EEF6AF090EF6AF092EF6AF0070E996F5F
:10D5240001019951D8A499EF6AF09BEF6AF0C4EF16
:10D534006AF00001E9A7A1EF6AF0A3EF6AF0A4EF93
:10D544006AF0E98D010120EE2FF09751D926985108
:10D55400DA22000110EE1CF0E551E126E651E22248
:10D56400DECFE6FFDECFE6FFDECFE6FFDECFE6FF6F
:10D5740020EE20F0E551D926E651DA22B4C1DEFFCF
:10D58400B5C1DDFF01019951D8A4CBEF6AF0CDEF0D
:10D594006AF0D1EF6CF097C108F098C109F0B4C1FA
:10D5A4000AF0B5C10BF0D1EC41F0000120EE06F019
:10D5B400E551D926E651DA2208C0DEFF09C0DEFFB4
:10D5C4000AC0DEFF0BC0DEFF1C0E0101B425016E94
:10D5D400000EB521026EF5EC43F0000120EE0AF0D6
:10D5E400E551D926E651DA2201C0DEFF02C0DEFF92
:10D5F40003C0DEFF04C0DEFFE5C0D9FFE6C0DAFFEA
:10D6040097C1DEFF98C1DDFF010120EE05F09751BF
:10D61400D9269851DA22000110EE02F0E551E126F4
:10D62400E651E222DECFE6FFDDCFE5FF20EE0EF08D
:10D63400E551D926E651DA22E9C0DFFF20EE0FF0EA
:10D64400E551D926E651DA22000EDF6E20EE18F0FD
:10D65400E551D926E651DA22DE6ADE6ADE6ADD6A3F
:10D6640020EE10F0E551D926E651DA22DE6ADE6AB0
:10D67400DE6ADD6A220EE525016E000EE621026EE9
:10D68400000E046E000E036E020E066E000E056E92
:10D69400B8EC3EF00001E9AB52EF6BF054EF6BF0E5
:10D6A400D1EF6CF020EE0AF0E551D926E651DA22EA
:10D6B400DE50DE10DE10DE10D8B463EF6BF065EFE1
:10D6C4006BF0D1EF6CF020EE0AF0E551D926E6516B
:10D6D400DA2210EE10F0E551E126E651E222DECF27
:10D6E400E6FFDECFE6FFDECFE6FFDECFE6FF010199
